:020000040000FA
:060000000A128A11F52F1F
:100D30008312031385018701880189018316031734
:100D4000880189018316031387018801890105142D
:100D500085140515F6010800F8007803031DB12E6F
:100D6000B22EB52EF201F20ABF2E7203031DB92E68
:100D7000BA2EBF2EF2010130F7007708F6070800FF
:100D8000F8007803031DC52EC62EC92EF101F10A05
:100D9000D32E7103031DCD2ECE2ED32EF1010130A3
:100DA000F7007708F50708000A128A1198260A1238
:100DB0008A1183120313050801390A128A110C27BC
:100DC0000A128A11032F83120313050C01390A1228
:100DD0008A11AC260A128A1176080A128A1147274C
:100DE0000A128A1183120313050CFA007A0C0139D6
:100DF0000A128A11C0260A128A1175080A128A116B
:100E00009E270A128A1170030319072F082FE32E59
:100E1000D92E0A128A110028F9007903031D112F17
:100E2000122F152FF301F30A462F7303031D192FF9
:100E30001A2F462F83120313890109148230F800F8
:100E4000DD30F700F70B222FF80B222F272F83120C
:100E50000313890189148230F800DD30F700F70BA5
:100E60002F2FF80B2F2F342F83120313890109150D
:100E70008230F800DD30F700F70B3C2FF80B3C2FE9
:100E8000412F831203138901F001F00A0800782F23
:100E90008312031387019D2F831203138701071405
:100EA0009D2F83120313870187149D2F8312031331
:100EB000870107159D2F83120313870187159D2F27
:100EC00083120313870107169D2F831203138701D3
:100ED00087169D2F83120313870107179D2F8312F7
:100EE0000313870187179D2FF601F001F3019D2F52
:100EF0007608F700F8017808003A0319802F742F5C
:100F00007708003A0319482F013A03194C2F033A86
:100F10000319512F013A0319562F073A03195B2F72
:100F2000013A0319602F033A0319652F013A031997
:100F30006A2F0F3A03196F2F742F0800CF2F8312D7
:100F400003138801F42F8312031388010814F42F6C
:100F50008312031388018814F42F8312031388016A
:100F60000815F42F8312031388018815F42F8312B8
:100F7000031388010816F42F8312031388018816BF
:100F8000F42F8312031388010817F42F831203131D
:100F900088018815F42FF501F001F301F42F75088D
:100FA000F700F8017808003A0319D72FCB2F7708FC
:100FB000003A03199F2F013A0319A32F033A03198B
:100FC000A82F013A0319AD2F073A0319B22F013A9E
:100FD0000319B72F033A0319BC2F013A0319C12F84
:100FE0000F3A0319C62FCB2F0800F001F101F201CF
:100FF000F301F401F501F60183010A128A11D42EDE
:04400E00D120FF3F7F
:00000001FF
