:020000040000FA
:060000000A128A110E280D
:10000800FE00030EF9000408FA000A08FB000A12B1
:100018008A11A52E0A128A111128F001F101F201A4
:10002800F301F401F50183133B30840051300A12C7
:100038008A159F270A128A1183010A128A11FA293E
:10004800B1292C08A5002B08A4000230A600003016
:10005800A7001E30AF002F08A8000A128A11342703
:100068000A128A11F9292C08A5002B08A4000230CD
:10007800A6000030A7002030AF002F08A8000A1201
:100088008A1134270A128A11F9292C08A5002B088D
:10009800A4000230A6000030A7002230AF002F08CD
:1000A800A8000A128A1134270A128A11F9292C0881
:1000B800A5002B08A4000230A6000030A7002430B9
:1000C800AF002F08A8000A128A1134270A128A11D1
:1000D800F9292C08A5002B08A4000230A60000303E
:1000E800A7002630AF002F08A8000A128A1134276B
:1000F8000A128A11F9292C08A5002B08A40002303D
:10010800A6000030A7002830AF002F08A8000A1268
:100118008A1134270A128A11F9292C08A5002B08FC
:10012800A4000230A6000030A7002A30AF002F0834
:10013800A8000A128A1134270A128A11F9292C08F0
:10014800A5002B08A4000230A6000030A7002C3020
:10015800AF002F08A8000A128A1134270A128A1140
:10016800F9292C08A5002B08A4000230A6000030AD
:10017800A7002E30AF002F08A8000A128A113427D2
:100188000A128A11F9292C08A5002B08A4000230AC
:10019800A6000030A7003030AF002F08A8000A12D0
:1001A8008A1134270A128A11F9292C08A5002B086C
:1001B800A4000230A6000030A7003430AF002F089A
:1001C800A8000A128A1134270A128A11F9292C0860
:1001D800A5002B08A4000230A6000030A700363086
:1001E800AF002F08A8000A128A1134270A128A11B0
:1001F800F9292C08A5002B08A4000230A60000301D
:10020800A7003830AF002F08A8000A128A11342737
:100218000A128A11F9292C08A5002B08A40002301B
:10022800A6000030A7003A30AF002F08A8000A1235
:100238008A1134270A128A11F9292C08A5002B08DB
:10024800A4000230A6000030A7003C30AF002F0801
:10025800A8000A128A1134270A128A11F9292C08CF
:10026800A5002B08A4000230A6000030A7003E30ED
:10027800AF002F08A8000A128A1134270A128A111F
:10028800F9292C08A5002B08A4000230A60000308C
:10029800A7001C30AF002F08A8000A128A113427C3
:1002A8000A128A11F9292C08A5002B08A40002308B
:1002B800A6000030A7001830AF002F08A8000A12C7
:1002C8008A1134270A128A11F9292C08A5002B084B
:1002D800A4000230A6000030A7001A30AF002F0893
:1002E800A8000A128A1134270A128A11F9292C083F
:1002F800A5002B08A4000230A6000030A700133088
:10030800AF002F08A8000A128A1134270A128A118E
:10031800F9292C08A5002B08A4000230A6000030FB
:10032800A7001630AF002F08A8000A128A11342738
:100338000A128A11F9292C08A5002B08A4000230FA
:10034800A6000030A7003230AF002F08A8000A121C
:100358008A1134270A128A11F929831203132E08E5
:10036800003A0319B8299F292D08003A03192528AE
:10037800013A03193728033A03194928013A03199E
:100388005B28073A03196D28013A03197F28033AB5
:1003980003199128013A0319A3280F3A0319B5281C
:1003A800013A0319C728033A0319D928013A03194E
:1003B800EB28073A0319FD28013A03190F29033AD4
:1003C80003192129013A031933291F3A0319452929
:1003D800013A03195729033A03196929013A0319FC
:1003E8007B29073A03198D299F2908000A128A15C3
:1003F800C8270A128A110A128A15B0270A128A1106
:10040800803083120313B9003908A000A101A201AA
:1004180020300A128A11CA270A128A110A128A116E
:10042800A9270A128A110A128A1106270A128A11A2
:100438000A128A1591270A128A11003083120313AF
:10044800A400A5000130A6000030A7000130B900C3
:100458003908A8000A128A1134270A128A1183124D
:100468000313CE01CD014C2B091089140915003056
:100478000A128A158B270A128A110A128A15A727C7
:100488000A128A1183120313B9003908BF000A122D
:100498008A1101260A128A110D3083120313AB0048
:1004A8000030AC004208B900BA013908AD003A087A
:1004B800AE000A128A1124200A128A110E30831201
:1004C8000313AB000030AC004108B900BA01390889
:1004D800AD003A08AE000A128A1124200A128A11C5
:1004E8000F3083120313AB000030AC004008B90092
:1004F800BA013908AD003A08AE000A128A11242060
:100508000A128A11013083120313B9003908CE0781
:10051800612B09148910091500300A128A158B27D6
:100528000A128A110A128A15A7270A128A11831237
:100538000313B9003908D0000A128A118A240A1252
:100548008A11003083120313AB00AC004808B900CD
:10055800BA013908AD003A08AE000A128A112420FF
:100568000A128A11013083120313AB000030AC0069
:100578001030AD000030AE000A128A1124200A1291
:100588008A11023083120313AB000030AC00460816
:10059800B900BA013908AD003A08AE000A128A114A
:1005A80024200A128A11033083120313AB0000308F
:1005B800AC004708B900BA013908AD003A08AE00E6
:1005C8000A128A1124200A128A11862A0914891407
:1005D800091100300A128A158B270A128A110A1289
:1005E8008A15A7270A128A1183120313B90039083A
:1005F800CC000630AB000030AC004908B900BA01A5
:100608003908AD003A08AE000A128A1124200A12ED
:100618008A11073083120313AB000030AC00450881
:10062800B900BA013908AD003A08AE000A128A11B9
:1006380024200A128A11083083120313AB000030F9
:10064800AC004408B900BA013908AD003A08AE0058
:100658000A128A1124200A128A11093083120313FC
:10066800AB000030AC004308B900BA013908AD004E
:100678003A08AE000A128A1124200A128A110A12B4
:100688008A116A230A128A1183120313CE01612B7D
:10069800831203134E08B900BA013A08003A031945
:1006A800562B612B3908003A0319382A013A0319E5
:1006B8008D2A033A0319EA2A612B0A128A11D626CF
:1006C8000A128A114C2B0A128A110E28831203135C
:1006D8004C08AF002F08CF0041304F02031C752B88
:1006E800762B002CBE30A6000030A7004F08BF3E76
:1006F800A000FF3003180030A1009630A20000309F
:10070800A3000A128A115F270A128A11831203139F
:100718002108A9002008A8000A128A1138250A12FF
:100728008A11831203132608AF002F08CB00643008
:10073800A6000030A7004B08AF00B0012F08A800A2
:100748003008A9000A128A1138250A128A11831260
:1007580003132608B1003108C5000A30A60000308E
:10076800A7004508AF00B0012F08A0003008A1007D
:100778009C30A200FF30A3000A128A115F270A12D8
:100788008A11831203134B082007A80021080318B5
:10079800210AA9000A128A1138250A128A1183121D
:1007A80003132608B1003108C4009C30AF002F089D
:1007B800A00045080A128A11E8270A128A11831232
:1007C8000313B000F630B1003108A00044080A1243
:1007D8008A11E8270A128A118312031330074B077C
:1007E800B2003208C3002030AF002F08CA0014300E
:1007F800AF002F08C900892CBF30A600FF30A70022
:100808004F08BF3EA000FF3003180030A10037306A
:10081800A2000030A3000A128A115F270A128A1167
:10082800831203132108A9002008A8000A128A11BC
:1008380038250A128A11831203132608AF002F08DD
:10084800CB006430A6000030A7004B08AF00B00111
:100858002F08A8003008A9000A128A1138250A12A0
:100868008A11831203132608B1003108C5000A3023
:10087800A6000030A7004508AF00B0012F08A0006F
:100888003008A1009C30A200FF30A3000A128A1190
:100898005F270A128A11831203134B082007A80046
:1008A80021080318210AA9000A128A1138250A12F8
:1008B8008A11831203132608B1003108C4009C3042
:1008C800AF002F08A00045080A128A11E8270A126B
:1008D8008A1183120313B000F630B1003108A0006A
:1008E80044080A128A11E8270A128A11831203138C
:1008F80030074B07B2003208C3002D30AF002F0875
:10090800CA001230AF002F08C90008003330831224
:100918000313A6000030A7005008AF00B0012F084D
:10092800A8003008A9000A128A1138250A128A116B
:10093800831203132608B1003108C8003330A6001B
:100948000030A7005008AF00B0012F08A000300801
:10095800A1006430A2000030A3000A128A115F27A8
:100968000A128A11831203132108A9002008A8007B
:100978000A128A1138250A128A11831203132608CB
:10098800B1002708B2004808B300B4013308A0003A
:100998003408A1009C30A200FF30A3000A128A117B
:1009A8005F270A128A118312031320083107B70040
:1009B80021080318210A3207B8000A30A6000030BF
:1009C800A7003808A9003708A8000A128A11382594
:1009D8000A128A11831203132608AF002F08C600D3
:1009E8003330A6000030A7005008AF00B0012F0830
:1009F800A0003008A1006430A2000030A3000A1251
:100A08008A115F270A128A11831203132108A90089
:100A18002008A8000A128A1138250A128A1183129E
:100A280003132608B1002708B2009C30B30033082E
:100A3800A00048080A128A11E8270A128A118312AC
:100A48000313B400F630B5003508A00046080A12B2
:100A58008A11E8270A128A1183120313340731070F
:100A6800B6003608C700080083120313AC01A71F9D
:100A78003E2D3F2D462DA609A709A60A0319A70A48
:100A8800AC01AC0AA91F492D4A2D532DA809A90963
:100A9800A80A0319A90A0130AA002A08AC06AD0160
:100AA800AE012608270403195A2D5B2D922DAB01A0
:100AB800AB0A692D01300310A60DA70DFF3E031DDB
:100AC8005F2D0130AA002A08AB07A71F6C2D6D2DDA
:100AD8005E2D01300310AD0DAE0DFF3E031D6E2DD2
:100AE80027082902031D7A2D26082802031C7D2DBC
:100AF8007E2D852D2608A8022708031CA903A90214
:100B08002D1401300310A70CA60CFF3E031D862DE3
:100B18000130AB02031D912D922D6D2D2C08031968
:100B2800962D972D9C2DAD09AE09AD0A0319AE0A75
:100B38002E08A7002D08A6000800CA2D70089900E5
:100B4800002E2E309900002E3B089900002E3C08FC
:100B58009900002E20309900002E4A089900002E96
:100B680074089900002E73089900002E72089900E5
:100B7800002E71089900002E3E089900002E3D08AD
:100B88009900002E0D309900CD01002E8312031319
:100B98004D08F600F7017708003A0319D42DC62D41
:100BA8007608003A0319A22D013A0319A22D033A37
:100BB8000319A52D013A0319A82D073A0319AB2DDE
:100BC800013A0319AE2D033A0319B12D013A03195D
:100BD800B42D0F3A0319B72D013A0319BA2D033A68
:100BE8000319AE2D013A0319BD2D073A0319C02D7B
:100BF800013A0319C32DC62D08006430831203136C
:100C0800A6000030A7003F08AF00B0012F08A800D9
:100C18003008A9000A128A1138250A128A1183128B
:100C280003132608B1003108C2000A30A6000030BC
:100C3800A7004208AF00B0012F08A0003008A100AB
:100C48009C30A200FF30A3000A128A115F270A1203
:100C58008A11831203133F082007A80021080318EC
:100C6800210AA9000A128A1138250A128A11831248
:100C780003132608B1003108C1009C30AF002F08CB
:100C8800A00042080A128A11E8270A128A11831260
:100C98000313B000F630B1003108A00041080A1271
:100CA8008A11E8270A128A118312031330073F07B3
:100CB800B2003208C000080006308A000408840A1E
:100CC80082070034413444344334203420342034FF
:100CD800543445344D345034203420342034433493
:100CE8004F344E3454340034C234B03400342034D9
:100CF80000342B3400342D3400342E340034303496
:100D08000034313400343234003433340034343471
:100D18000034353400343634003437340034383451
:100D2800003439340034403400344134003442341F
:100D380000344334003444340034453400344634F9
:100D48000034831203130C1EAA2EAB2EB72E0130CB
:100D5800F8007808CD070A128A11A1250A128A110B
:100D6800831603130C120B1DBA2EBB2ECD2EFA3090
:100D7800831281000B110130F8007808F507643000
:100D88007506031DC82EC92ECD2EF5018316031333
:100D98000C167B088A007A088400790E8300FE0E00
:100DA8007E0E0900831203134808303EA000200875
:100DB800F0004608303EA0002008BB004708303E3F
:100DC800A0002008BC004208303EA0002008F10026
:100DD8004108303EA0002008BE004008303EA00078
:100DE8002008BD004508303EA0002008F400440853
:100DF800303EA0002008F3004308303EA000200841
:100E0800F20008008316031308138813860183125F
:100E18000313081388138601413083120313A400B7
:100E2800ED30A300A30B162FA40B162F1B2F023097
:100E38000A128A15EA270A128A1138300A128A1504
:100E4800EA270A128A110C300A128A15EA270A12AE
:100E58008A1106300A128A15EA270A128A1108002E
:100E6800412F2408803EA9002908AA00502F2408F1
:100E7800C03EA9002908AA00502F8312031327088F
:100E8800003A0319482F352F2608013A0319352F40
:100E9800033A03193B2F352F2A080A128A15EA2725
:100EA8000A128A118312031328080A128A11862744
:100EB8000A128A11080083120313A401A501201C39
:100EC800662F672F6D2F2208A4070318A50A230889
:100ED800A50701300310A20DA30DFF3E031D6E2FC1
:100EE80001300310A10CA00CFF3E031D752F200834
:100EF8002104031D802F812F632F2508A1002408BA
:100F0800A000080083120313A3009C2F2308840069
:100F18000A128A1160260A128A110A128A15D7271C
:100F28000A128A11013083120313A2002208A307B0
:100F3800230884000A128A1160260A128A11003ACC
:100F4800031DA72FA82F8A2F0800831203138501DA
:100F580086018701880189018316031385018601AB
:100F680010308700880189018316031788018901D9
:100F78008B170B178B160B11831603130C16811284
:100F88000112811101148114011508008312031341
:100F9800A30083160313871283120313231DD52F6F
:100FA800D62FDC2F22088316031394008715E22F0F
:100FB8002008220483160313940087118312031355
:100FC800230821049400080083120313A300A2013C
:100FD800231CEF2FF02FF42F2008A1002108A207CF
:100FE8000310A00D0310A30C2308031DFC2FFD2FD5
:060FF800EC2F22080800A6
:101F160083120313A00020089300080001300A1260
:101F26008A15EA270A128A15080083160313141C59
:101F36009D2F9E2F982F080064008001840A0406B6
:101F4600031900340406A02F0A128A1598270A12CC
:101F56008A158312031313080800831203139817B4
:101F66001816181198101813831603138C160800E8
:101F7600831203138817BF2FC02F00008312031389
:101F86008813C52FC62F00000800831603131812E6
:101F96009816181518138316031787111930831608
:101FA600031399009A01080083120313A10008176E
:101FB600210886000A128A15BB270A128A150F30D5
:101FC60083120313A000A00BE62FE92F080083124B
:101FD6000313A2000813220886000A128A15BB27DB
:101FE6000A128A15033083120313A1009730A0004A
:0A1FF600A00BFB2FA10BFB2F08002E
:04400E00D420FF3F7C
:00000001FF
