:020000040000FA
:060000000A128A110C280F
:10000800FE00030EF1000A08F2000A128A110829FC
:100018000A128A110F28F80183010A128A11262967
:10002800F600A928831203139F121F129F111F1194
:100038001F149F14831603139F01E02883120313D0
:100048009F121F129F111F151F149F141E28831221
:1000580003139F121F129F151F111F149F141E2890
:10006800831203139F121F129F151F151F149F142D
:100078001E28831203139F121F169F111F111F148E
:100088009F141E28831203139F121F169F111F15FA
:100098001F149F141E28831203139F121F169F15E7
:1000A8001F111F149F141E28831203139F121F165B
:1000B8009F151F151F149F141E28831203139F16C4
:1000C8001F129F111F111F149F141E288312031340
:1000D8009F161F129F111F151F149F141E2883128D
:1000E80003139F161F129F151F111F149F141E28FC
:1000F800831203139F161F129F151F151F149F1499
:100108001E28831203139F161F169F111F111F14F9
:100118009F141E28831203139F161F169F111F1565
:100128001F149F141E28831203139F161F169F1552
:100138001F111F149F141E28831203139F161F16C6
:100148009F151F151F149F141E287608F400F5012B
:100158007508003A0319B128A0287408003A031951
:100168001628013A03192228033A03192B28013AC1
:1001780003193428073A03193D28013A0319462878
:10018800033A03194F28013A031958280F3A03195B
:100198006128013A03196A28033A03197328013AB6
:1001A80003197C28073A03198528013A03198E2870
:1001B800033A03199728A02808000230F7007708A7
:1001C800F30000300A128A1114200A128A118316C9
:1001D80003130C1783120313850186018701880115
:1001E80089010130831603138500860118308700C2
:1001F8008801890101308316031788008B170B17B4
:10020800831203130C130800831203130C1F0D2908
:100218000E2912291E0886000C139F148C1D1529FF
:1002280016291F2906080A128A115E210A128A1144
:10023800831203138C1172088A00710E8300FE0E5C
:100248007E0E0900F301F401F50124300A128A1127
:100258003D210A128A110A128A11E1200A128A1112
:100268000A128A1153210A128A1134290A128A1190
:100278000C28F600831603138712761D4429452996
:1002880049297508940087154D2973087504940049
:10029800871176087404831203139400080015303C
:1002A8007802031C582959295D29F8018312031380
:1002B8009F140800F00070088312031393000800CD
:04400E00D420FF3F7C
:00000001FF
