:020000040000FA
:060000000A128A110C280F
:10000800FE00030EF2000A08F3000A128A110E29F4
:100018000A128A110F28F801F90183010A128A11BC
:100028003029F700AA28831203139F121F129F1169
:100038001F111F149F14831603139F01E1288312B5
:1000480003139F121F129F111F151F149F141F289F
:10005800831203139F121F129F151F111F149F1441
:100068001F28831203139F121F129F151F151F1499
:100078009F141F28831203139F121F169F111F110D
:100088001F149F141F28831203139F121F169F11FA
:100098001F151F149F141F28831203139F121F1666
:1000A8009F151F111F149F141F28831203139F12DB
:1000B8001F169F151F151F149F141F288312031343
:1000C8009F161F129F111F111F149F141F288312A0
:1000D80003139F161F129F111F151F149F141F280B
:1000E800831203139F161F129F151F111F149F14AD
:1000F8001F28831203139F161F129F151F151F1405
:100108009F141F28831203139F161F169F111F1178
:100118001F149F141F28831203139F161F169F1165
:100128001F151F149F141F28831203139F161F16D1
:100138009F151F111F149F141F28831203139F1646
:100148001F169F151F151F149F141F287708F500E9
:10015800F6017608003A0319B228A1287508003A72
:1001680003191728013A03192328033A03192C28DD
:10017800013A03193528073A03193E28013A0319A9
:100188004728033A03195028013A031959280F3A06
:1001980003196228013A03196B28033A03197428D2
:1001A800013A03197D28073A03198628013A0319E9
:1001B8008F28033A03199828A128080002308312CF
:1001C8000313A0002008F40000300A128A11152039
:1001D8000A128A11831603130C178312031385015D
:1001E8008601870188018901213083160313850060
:1001F80086018801890101308316031788008B174F
:100208000B17831203130C130C138C11831603138F
:100218008C150800831203130C1F132914291A299B
:100228001E08F1007108F8000C139F148C1D1D297D
:100238001E2929297808860078080A128A116D2152
:100248000A128A11831203138C1173088A00720E22
:100258008300FE0E7E0E0900803083120313A10076
:100268002108F400F501F60124300A128A114C2104
:100278000A128A110A128A11E2200A128A110A1233
:100288008A1162210A128A1143290A128A110C283A
:10029800F700831603138712771D53295429582909
:1002A8007608940087155C297408760494008711F1
:1002B8007708750483120313940008001530790237
:1002C800031C672968296C29F901831203139F14F9
:0E02D8000800F0007008831203139300080062
:04400E00D420FF3F7C
:00000001FF
