:020000040000FA
:100000000A128A11F32F00308A000408840A82073A
:1000100000344134443443342034543445344D3472
:100020005034203443344F344E34543400342E345E
:10003000003430340034313400343234003433345A
:10004000003434340034353400343634003437343A
:10005000003438340034393400344134003442340C
:1000600000344334003444340034453400344634DE
:0200700000345A
:1007E800F0007008831203139300080001300A1206
:1007F8008A114C240A128A11080083160313141C48
:10080800062C072C012C080064008001840A0406C9
:10081800031900340406092C0A128A1101240A1249
:100828008A1183120313130808008312031388170D
:100838001D2C1E2C0000831203138813232C242C38
:1008480000000800F10083120313081771088600DE
:100858000A128A1119240A128A111030F000F00BBA
:10086800332C00000800F300F201731C3C2C3D2CD3
:10087800412C7008F1007108F2070310F00D031005
:10088800F30C7308031D492C4A2C392C72080800F4
:10089800F200831203130813720886000A128A11E1
:1008A80019240A128A110330F1009730F000F00B76
:1008B8005B2CF10B5B2C602C0800F30083160313F0
:1008C8008712731D682C692C6D2C7208940087158B
:1008D800712C7008720494008711730871048312D4
:1008E800031394000800831203138501860187010E
:1008F800880189018316031385018601103087005A
:1009080088010130890083160317880189018B1734
:100918000B178B150800F300A12C730884000A122A
:100928008A1103200A128A110A128A1126240A122D
:100938008A110130F2007208F307730884000A1262
:100948008A1103200A128A11003A031DAC2CAD2C1F
:10095800912C0800F401F501701CB32CB42CBA2CAE
:100968007208F4070318F50A7308F5070130031035
:10097800F20DF30DFF3E031DBB2C01300310F10CEB
:10098800F00CFF3E031DC22C70087104031DCD2C12
:10099800CE2CB02C7508F1007408F0000800E02C8B
:1009A8007408803EF9007908FA00ED2C7408C03EFE
:1009B800F9007908FA00ED2C7708003A0319E52CBC
:1009C800D42C7608013A0319D42C033A0319DA2CEB
:1009D800D42C7A080A128A114C240A128A1178082F
:1009E8000A128A118F240A128A1108008316031327
:1009F80008138813860183120313081388138601CA
:100A08004130F400EE30F300F30B082DF40B082D01
:100A1800000002300A128A114C240A128A11383056
:100A28000A128A114C240A128A110C300A128A11ED
:100A38004C240A128A1106300A128A114C240A120E
:100A48008A1108006430F6000030F700831203139F
:100A58002608B900BA013908F8003A08F9000A125C
:100A68008A1185250A128A11760883120313BB009E
:100A78003B08A9000A30F6000030F7002908B90041
:100A8800BA013908F0003A08F1009C30F200FF3052
:100A9800F3000A128A11AE240A128A118312031370
:100AA80026087007F80071080318710AF9000A127D
:100AB8008A1185250A128A11760883120313BB004E
:100AC8003B08A8009C30B9003908F00029080A1230
:100AD8008A1137240A128A1183120313BA00F630D6
:100AE800BB003B08F00028080A128A1137240A12B2
:100AF8008A11831203133A072607BC003C08A70093
:100B0800080083120313B601F71F8B2D8C2D932D2C
:100B1800F609F709F60A0319F70AB601B60AF91F22
:100B2800962D972DA02DF809F909F80A0319F90A45
:100B38000130FA007A08B606B701B80176087704DA
:100B48000319A72DA82DDF2DB501B50AB62D013043
:100B58000310F60DF70DFF3E031DAC2D0130FA0012
:100B68007A08B507F71FB92DBA2DAB2D0130031040
:100B7800B70DB80DFF3E031DBB2D77087902031D85
:100B8800C72D76087802031CCA2DCB2DD22D7608E6
:100B9800F8027708031CF903F9023714013003102F
:100BA800F70CF60CFF3E031DD32D0130B502031DD3
:100BB800DE2DDF2DBA2D36080319E32DE42DE92D9E
:100BC800B709B809B70A0319B80A3808F700370887
:100BD800F6000800F001F101F20120300A128A1132
:100BE80061240A128A110A128A1177240A128A11B8
:100BF8000A128A11FA240A128A110A128A11FA238D
:100C08000A128A110030F400F5000130F6000030B5
:100C1800F7000130FC007C08F8000A128A11D3247E
:100C28000A128A1183120313B2010A3083120313C2
:100C3800B5000030B6002908FC00FD017C08B700AB
:100C48007D08B8000A128A1186260A128A110B300A
:100C580083120313B5000030B6002808FC00FD011C
:100C68007C08B7007D08B8000A128A1186260A1285
:100C78008A110C3083120313B5000030B600270820
:100C8800FC00FD017C08B7007D08B8000A128A1133
:100C980086260A128A11712E091089140915003046
:100CA8000A128A11F4230A128A110A128A111024CC
:100CB8000A128A11FC007C0883120313A6000A1288
:100CC8008A1126250A128A11192E09148910091564
:100CD800192E091489140911192E831203133208C5
:100CE800FC00FD017D08003A03197B2E6D2E7C085F
:100CF800003A0319502E013A0319692E6D2E0A1273
:100D08008A110028B92F3608F5003508F40002309A
:100D1800F6000030F7001130FB007B08F8000A12DB
:100D28008A11D3240A128A11F22F3608F5003508E1
:100D3800F4000230F6000030F7001330FB007B08A7
:100D4800F8000A128A11D3240A128A11F22F3608DF
:100D5800F5003508F4000230F6000030F7001530D1
:100D6800FB007B08F8000A128A11D3240A128A11A0
:100D7800F22F3608F5003508F4000230F60000308E
:100D8800F7001730FB007B08F8000A128A11D324F9
:100D98000A128A11F22F3608F5003508F4000230DD
:100DA800F6000030F7001930FB007B08F8000A1243
:100DB8008A11D3240A128A11F22F3608F500350851
:100DC800F4000230F6000030F7001B30FB007B080F
:100DD800F8000A128A11D3240A128A11F22F36084F
:100DE800F5003508F4000230F6000030F7001D3039
:100DF800FB007B08F8000A128A11D3240A128A1110
:100E0800F22F3608F5003508F4000230F6000030FD
:100E1800F7001F30FB007B08F8000A128A11D32460
:100E28000A128A11F22F3608F5003508F40002304C
:100E3800F6000030F7002130FB007B08F8000A12AA
:100E48008A11D3240A128A11F22F3608F5003508C0
:100E5800F4000230F6000030F7002330FB007B0876
:100E6800F8000A128A11D3240A128A11F22F3608BE
:100E7800F5003508F4000230F6000030F7002530A0
:100E8800FB007B08F8000A128A11D3240A128A117F
:100E9800F22F3608F5003508F4000230F60000306D
:100EA800F7002730FB007B08F8000A128A11D324C8
:100EB8000A128A11F22F3608F5003508F4000230BC
:100EC800F6000030F7002930FB007B08F8000A1212
:100ED8008A11D3240A128A11F22F3608F500350830
:100EE800F4000230F6000030F7002B30FB007B08DE
:100EF800F8000A128A11D3240A128A11F22F36082E
:100F0800F5003508F4000230F6000030F7002D3007
:100F1800FB007B08F8000A128A11D3240A128A11EE
:100F2800F22F3608F5003508F4000230F6000030DC
:100F3800F7002F30FB007B08F8000A128A11D3242F
:100F48000A128A11F22F3608F5003508F40002302B
:100F5800F6000030F7000F30FB007B08F8000A129B
:100F68008A11D3240A128A11F22F83120313380824
:100F7800003A0319C02FA72F3708003A0319872E04
:100F8800013A0319992E033A0319AB2E013A0319B2
:100F9800BD2E073A0319CF2E013A0319E12E033A61
:100FA8000319F32E013A0319052F0F3A0319172FC6
:100FB800013A0319292F033A03193B2F013A031960
:100FC8004D2F073A03195F2F013A0319712F033A7E
:100FD8000319832F013A0319952FA72F08008313AC
:100FE8002030840035300A128A1108240A128A1126
:080FF80083010A128A11EE2D9B
:04400E00D420FF3F7C
:00000001FF
