:020000040000FA
:100000000A128A11F22F00308A000408840A82073B
:1000100000344134443443342034543445344D3472
:100020005034203443344F344E34543400342E345E
:10003000003430340034313400343234003433345A
:10004000003434340034353400343634003437343A
:10005000003438340034393400344134003442340C
:1000600000344334003444340034453400344634DE
:0200700000345A
:10058C00F0007008831203139300080001300A1264
:10059C008A111E230A128A11080083160313141CD5
:1005AC00D82AD92AD32A080064008001840A0406B8
:1005BC00031900340406DB2A0A128A11D3220A1208
:1005CC008A1183120313130808008312031388176C
:1005DC00EF2AF02A0000831203138813F52AF62A57
:1005EC0000000800F100831203130817710886003D
:1005FC000A128A11EB220A128A111030F000F00B49
:10060C00052B00000800F300F201731C0E2B0F2BBE
:10061C00132B7008F1007108F2070310F00D031092
:10062C00F30C7308031D1B2B1C2B0B2B72080800DF
:10063C00F200831203130813720886000A128A113F
:10064C00EB220A128A110330F1009730F000F00B04
:10065C002D2BF10B2D2B322B08008312031385014C
:10066C0086018701880189018316031385018601A0
:10067C008801890183160317880189018B170B17D1
:10068C008B150800F300831603138712731D4F2B71
:10069C00502B542B720894008715582B7008720439
:1006AC0094008711730871048312031394000800DB
:1006BC00F300702B730884000A128A1103200A12AB
:1006CC008A110A128A11F8220A128A110130F200D8
:1006DC007208F307730884000A128A1103200A12A5
:1006EC008A11003A031D7B2B7C2B602B0800F40134
:1006FC00F501701C822B832B892B7208F4070318CD
:10070C00F50A7308F50701300310F20DF30DFF3EE7
:10071C00031D8A2B01300310F10CF00CFF3E031D5E
:10072C00912B70087104031D9C2B9D2B7F2B75083E
:10073C00F1007408F0000800AF2B7408803EF9003B
:10074C007908FA00BC2B7408C03EF9007908FA004D
:10075C00BC2B7708003A0319B42BA32B7608013A6B
:10076C000319A32B033A0319A92BA32B7A080A12FA
:10077C008A111E230A128A1178080A128A115E2322
:10078C000A128A11080083160313081388138601B2
:10079C00831203130813881386014130F400EE30E2
:1007AC00F300F30BD72BF40BD72B000002300A12FB
:1007BC008A111E230A128A1138300A128A111E233A
:1007CC000A128A110C300A128A111E230A128A117B
:1007DC0006300A128A111E230A128A11080064308C
:1007EC00F6000030F700831203132608B800B90195
:1007FC003808F8003908F9000A128A1154240A1230
:10080C008A11760883120313BA003A08A9000A3039
:10081C00F6000030F7002908B800B9013808F000DC
:10082C003908F1009C30F200FF30F3000A128A11F3
:10083C007D230A128A118312031326087007F8000D
:10084C0071080318710AF9000A128A1154240A1249
:10085C008A11760883120313BA003A08A8009C3058
:10086C00B8003808F00029080A128A1109230A1264
:10087C008A1183120313B900F630BA003A08F0005B
:10088C0028080A128A1109230A128A1183120313E7
:10089C0039072607BB003B08A70008008312031387
:1008AC00B501F71F5A2C5B2C622CF609F709F60AD6
:1008BC000319F70AB501B50AF91F652C662C6F2CC4
:1008CC00F809F909F80A0319F90A0130FA007A084B
:1008DC00B506B601B701760877040319762C772C88
:1008EC00AE2CB401B40A852C01300310F60DF70DB3
:1008FC00FF3E031D7B2C0130FA007A08B407F71F6A
:10090C00882C892C7A2C01300310B60DB70DFF3EC4
:10091C00031D8A2C77087902031D962C7608780221
:10092C00031C992C9A2CA12C7608F8027708031C2E
:10093C00F903F902361401300310F70CF60CFF3EE4
:10094C00031DA22C0130B402031DAD2CAE2C892C3E
:10095C0035080319B22CB32CB82CB609B709B60A52
:10096C000319B70A3708F7003608F60008003330C9
:10097C00F6000030F700831203133308B800B901F6
:10098C003808F8003908F9000A128A1154240A129E
:10099C008A11760883120313BA003A08FD0033302B
:1009AC00F6000030F7003308B800B9013808F00041
:1009BC003908F1006430F2000030F3000A128A1199
:1009CC007D230A128A117108F9007008F8000A12C6
:1009DC008A1154240A128A11760883120313BA005E
:1009EC007708BB007D08BC00BD013C08F0003D0849
:1009FC00F1009C30F200FF30F3000A128A117D23C3
:100A0C000A128A117008831203133A07FB0071084B
:100A1C000318710A3B07FC000A30F6000030F7009F
:100A2C007C08F9007B08F8000A128A1154240A1277
:100A3C008A11760883120313B8003808AE003330DD
:100A4C00F6000030F7003308B800B9013808F000A0
:100A5C003908F1006430F2000030F3000A128A11F8
:100A6C007D230A128A117108F9007008F8000A1225
:100A7C008A1154240A128A11760883120313BA00BD
:100A8C007708BB009C30BC003C08F0007D080A12C3
:100A9C008A1109230A128A1183120313BD00F6303E
:100AAC00BE003E08F0002E080A128A1109230A1211
:100ABC008A11831203133D073A07BF003F08AF00AA
:100ACC000800803083120313C0004008F000F101CD
:100ADC00F20120300A128A1148230A128A110A12D2
:100AEC008A1133230A128A110A128A11C9230A1293
:100AFC008A110A128A11CC220A128A110030F400CF
:100B0C00F5000130F6000030F700013083120313BA
:100B1C00C0004008F8000A128A11A2230A128A1196
:100B2C0083120313B101722E0910891409150030B8
:100B3C000A128A11C6220A128A11C73083120313B1
:100B4C00C000A82DC00BA72DAB2D0A128A11E222D2
:100B5C000A128A1183120313C0004008A60026084B
:100B6C0085000A128A11F5230A128A11C7308312E2
:100B7C000313C000C12DC00BC02DC42D0A3083122D
:100B8C000313B4000030B5002908C000C1014008AF
:100B9C00B6004108B7000A128A1185260A128A117A
:100BAC000B3083120313B4000030B5002808C000CA
:100BBC00C1014008B6004108B7000A128A11852607
:100BCC000A128A110C3083120313B4000030B500E2
:100BDC002708C000C1014008B6004108B7000A123E
:100BEC008A1185260A128A11013083120313C00060
:100BFC004008B107722E09148910091500300A1229
:100C0C008A11C6220A128A11C73083120313C0003C
:100C1C000F2EC00B0E2E122E0A128A11E2220A126D
:100C2C008A1183120313C0004008B3000A128A1100
:100C3C00BD240A128A11C73083120313C000262E5A
:100C4C00C00B252E292E023083120313B400003062
:100C5C00B5007D08C000C1014008B6004108B700CE
:100C6C000A128A1185260A128A1103308312031381
:100C7C00B4000030B5001030B6000030B7000A12D6
:100C8C008A1185260A128A11043083120313B400C8
:100C9C000030B5002E08C000C1014008B600410864
:100CAC00B7000A128A1185260A128A11053083129E
:100CBC000313B4000030B5002F08C000C101400878
:100CCC00B6004108B7000A128A1185260A128A1149
:100CDC00962D0914891409113108C000C10141086D
:100CEC00003A03197A2E6F2E4008003A03199A2DF8
:100CFC00013A0319012E6F2E0A128A110028B82FFF
:100D0C003508F5003408F4000230F6000030F70026
:100D1C001130FB007B08F8000A128A11A2230A1278
:100D2C008A11F12F3508F5003408F4000230F60072
:100D3C000030F7001330FB007B08F8000A128A1110
:100D4C00A2230A128A11F12F3508F5003408F40099
:100D5C000230F6000030F7001530FB007B08F8007D
:100D6C000A128A11A2230A128A11F12F3508F500F2
:100D7C003408F4000230F6000030F7001730FB00A6
:100D8C007B08F8000A128A11A2230A128A11F12F89
:100D9C003508F5003408F4000230F6000030F70096
:100DAC001930FB007B08F8000A128A11A2230A12E0
:100DBC008A11F12F3508F5003408F4000230F600E2
:100DCC000030F7001B30FB007B08F8000A128A1178
:100DDC00A2230A128A11F12F3508F5003408F40009
:100DEC000230F6000030F7001D30FB007B08F800E5
:100DFC000A128A11A2230A128A11F12F3508F50062
:100E0C003408F4000230F6000030F7001F30FB000D
:100E1C007B08F8000A128A11A2230A128A11F12FF8
:100E2C003508F5003408F4000230F6000030F70005
:100E3C002130FB007B08F8000A128A11A2230A1247
:100E4C008A11F12F3508F5003408F4000230F60051
:100E5C000030F7002330FB007B08F8000A128A11DF
:100E6C00A2230A128A11F12F3508F5003408F40078
:100E7C000230F6000030F7002530FB007B08F8004C
:100E8C000A128A11A2230A128A11F12F3508F500D1
:100E9C003408F4000230F6000030F7002730FB0075
:100EAC007B08F8000A128A11A2230A128A11F12F68
:100EBC003508F5003408F4000230F6000030F70075
:100ECC002930FB007B08F8000A128A11A2230A12AF
:100EDC008A11F12F3508F5003408F4000230F600C1
:100EEC000030F7002B30FB007B08F8000A128A1147
:100EFC00A2230A128A11F12F3508F5003408F400E8
:100F0C000230F6000030F7002D30FB007B08F800B3
:100F1C000A128A11A2230A128A11F12F3508F50040
:100F2C003408F4000230F6000030F7002F30FB00DC
:100F3C007B08F8000A128A11A2230A128A11F12FD7
:100F4C003508F5003408F4000230F6000030F700E4
:100F5C000F30FB007B08F8000A128A11A2230A1238
:100F6C008A11F12F831203133708003A0319BF2F8C
:100F7C00A62F3608003A0319862E013A0319982E2B
:100F8C00033A0319AA2E013A0319BC2E073A031986
:100F9C00CE2E013A0319E02E033A0319F22E013A30
:100FAC000319042F0F3A0319162F013A0319282F8E
:100FBC00033A03193A2F013A03194C2F073A031934
:100FCC005E2F013A0319702F033A0319822F013A4D
:100FDC000319942FA62F0800FD01831320308400E1
:100FEC0034300A128A11DA220A128A1183010A1287
:040FFC008A11672DC2
:04400E00D420FF3F7C
:00000001FF
