:020000040000FA
:100000000A128A11EE2F00308A000408840A82073F
:100010000034413444344334203443344F344E3478
:1000200054342034543445344D34503400342E3458
:10003000003430340034313400343234003433345A
:10004000003434340034353400343634003437343A
:10005000003438340034393400344134003442340C
:1000600000344334003444340034453400344634DE
:0200700000345A
:100A2C00F0007008831203139300080001300A12BF
:100A3C008A1141250A128A110800831203138817A0
:100A4C00272D282D00008312031388132D2D2E2DF6
:100A5C0000000800F10083120313081771088600C8
:100A6C000A128A1123250A128A111030F000F00B99
:100A7C003D2D00000800F2008312031308137208C6
:100A8C0086000A128A1123250A128A110330F100FA
:100A9C009730F000F00B502DF10B502D552D080018
:100AAC00F300831603138712731D5D2D5E2D622DCB
:100ABC00720894008715662D7008720494008711D3
:100ACC007308710483120313940008008312031338
:100ADC00850186018701880189018316031385012D
:100AEC0086011030870088010130890083160317B6
:100AFC00880189018B170B178B150800F300962DB5
:100B0C00730884000A128A1103200A128A110A122D
:100B1C008A1130250A128A110130F2007208F3078B
:100B2C00730884000A128A1103200A128A11003AEF
:100B3C00031DA12DA22D862D0800B02D7408803E1A
:100B4C00F9007908FA00BD2D7408C03EF900790847
:100B5C00FA00BD2D7708003A0319B52DA42D76089F
:100B6C00013A0319A42D033A0319AA2DA42D7A08CE
:100B7C000A128A1141250A128A1178080A128A115E
:100B8C0084250A128A11080083160313081388138C
:100B9C008601831203130813881386014130F40075
:100BAC00EE30F300F30BD82DF40BD82D00000230EF
:100BBC000A128A1141250A128A1138300A128A1136
:100BCC0041250A128A110C300A128A1141250A1287
:100BDC008A1106300A128A1141250A128A1108005C
:100BEC00F001F101F20120300A128A1156250A1285
:100BFC008A110A128A116C250A128A110A128A1198
:100C0C00CA250A128A110A128A111C250A128A1183
:100C1C000030F400F5000130F6000030F700013030
:100C2C00FC007C08F8000A128A11A3250A128A110A
:100C3C0083120313A901372E0910891409150030EA
:100C4C000A128A1116250A128A11831203138501BE
:100C5C00492E091489100915492E091489140911F2
:100C6C00492E831203132908FC00FD017D08003A6C
:100C7C000319412E332E7C08003A0319222E013A17
:100C8C0003192F2E332E0A30AC000030AD00230890
:100C9C00FC00FD017C08AE007D08AF000A128A1131
:100CAC0081260A128A110B3083120313AC00003018
:100CBC00AD002208FC00FD017C08AE007D08AF00F1
:100CCC000A128A1181260A128A110C30831203131C
:100CDC00AC000030AD002108FC00FD017C08AE002A
:100CEC007D08AF000A128A1181260A128A11372E4A
:100CFC000A128A110028B42F2D08F5002C08F400D4
:100D0C000230F6000030F7001130FB007B08F800D1
:100D1C000A128A11A3250A128A11ED2F2D08F5004B
:100D2C002C08F4000230F6000030F7001330FB0002
:100D3C007B08F8000A128A11A3250A128A11ED2FDA
:100D4C002D08F5002C08F4000230F6000030F700F6
:100D5C001530FB007B08F8000A128A11A3250A1231
:100D6C008A11ED2F2D08F5002C08F4000230F60046
:100D7C000030F7001730FB007B08F8000A128A11CC
:100D8C00A3250A128A11ED2F2D08F5002C08F4006A
:100D9C000230F6000030F7001930FB007B08F80039
:100DAC000A128A11A3250A128A11ED2F2D08F500BB
:100DBC002C08F4000230F6000030F7001B30FB006A
:100DCC007B08F8000A128A11A3250A128A11ED2F4A
:100DDC002D08F5002C08F4000230F6000030F70066
:100DEC001D30FB007B08F8000A128A11A3250A1299
:100DFC008A11ED2F2D08F5002C08F4000230F600B6
:100E0C000030F7001F30FB007B08F8000A128A1133
:100E1C00A3250A128A11ED2F2D08F5002C08F400D9
:100E2C000230F6000030F7002130FB007B08F800A0
:100E3C000A128A11A3250A128A11ED2F2D08F5002A
:100E4C002C08F4000230F6000030F7002330FB00D1
:100E5C007B08F8000A128A11A3250A128A11ED2FB9
:100E6C002D08F5002C08F4000230F6000030F700D5
:100E7C002530FB007B08F8000A128A11A3250A1200
:100E8C008A11ED2F2D08F5002C08F4000230F60025
:100E9C000030F7002730FB007B08F8000A128A119B
:100EAC00A3250A128A11ED2F2D08F5002C08F40049
:100EBC000230F6000030F7002930FB007B08F80008
:100ECC000A128A11A3250A128A11ED2F2D08F5009A
:100EDC002C08F4000230F6000030F7002B30FB0039
:100EEC007B08F8000A128A11A3250A128A11ED2F29
:100EFC002D08F5002C08F4000230F6000030F70045
:100F0C002D30FB007B08F8000A128A11A3250A1267
:100F1C008A11ED2F2D08F5002C08F4000230F60094
:100F2C000030F7002F30FB007B08F8000A128A1102
:100F3C00A3250A128A11ED2F2D08F5002C08F400B8
:100F4C000230F6000030F7000F30FB007B08F80091
:100F5C000A128A11A3250A128A11ED2F8312031388
:100F6C002F08003A0319BB2FA22F2E08003A0319A1
:100F7C00822E013A0319942E033A0319A62E013A34
:100F8C000319B82E073A0319CA2E013A0319DC2E9D
:100F9C00033A0319EE2E013A0319002F0F3A0319E5
:100FAC00122F013A0319242F033A0319362F013A51
:100FBC000319482F073A03195A2F013A03196C2FBA
:100FCC00033A03197E2F013A0319902FA22F080020
:100FDC0083120313A001A101A201A301A401A50185
:100FEC00A601A701A801A901AA01AB0183010A125C
:040FFC008A11F62D33
:04400E00D420FF3F7C
:00000001FF
