:020000040000FA
:060000000A128A110E280D
:10000800FE00030EF6000408F7000A08F8000A12BA
:100018008A11EF290A128A111128F901FA01FB0144
:10002800FC01FD0183120313A50183010A128A1141
:10003800772A83120313A30071289F121F129F119E
:100048001F11B4289F121F129F111F15B4289F1249
:100058001F129F151F11B4289F121F129F151F15DD
:10006800B4289F121F169F111F11B4289F121F1624
:100078009F111F15B4289F121F169F151F11B42812
:100088009F121F169F151F15B4289F161F129F1128
:100098001F11B4289F161F129F111F15B4289F16F1
:1000A8001F129F151F11B4289F161F129F151F1589
:1000B800B4289F161F169F111F11B4289F161F16CC
:1000C8009F111F15B4289F161F169F151F11B428BE
:1000D8009F161F169F151F15B4282308A100A201FB
:1000E8002208003A031979286C282108003A0319D4
:1000F8002128013A03192628033A03192B28013A23
:1001080003193028073A03193528013A03193A2800
:10011800033A03193F28013A031944280F3A0319EF
:100128004928013A03194E28033A03195328013A7A
:1001380003195828073A03195D28013A0319622858
:10014800033A031967286C289F131F13C7289F13A6
:100158001F17C7289F171F13C7289F171F17C728C0
:100168002008A100A2012208003A0319BC28B128DE
:100178002108003A0319A828013A0319AB28033AC1
:100188000319AE28B1280800F2001A29C0308312DA
:10019800031387005429F930831203138700542965
:1001A800A4308312031387005429B0308312031339
:1001B80087005429993083120313870054299230F9
:1001C8008312031387005429823083120313870094
:1001D8005429F8308312031387005429803083127E
:1001E800031387005429903083120313870054297E
:1001F8008830831203138700542983308312031332
:1002080087005429C6308312031387005429A1306C
:10021800831203138700542986308312031387003F
:1002280054298E3083120313870054297208F00072
:10023800F1017108003A0319222954297008003A7B
:100248000319CA28013A0319CF28033A0319D428F5
:10025800013A0319D928073A0319DE28013A031984
:10026800E328033A0319E828013A0319ED280F3A5D
:100278000319F228013A0319F728033A0319FC284D
:10028800013A03190129073A03190629013A031902
:100298000B29033A03191029013A0319152954297E
:1002A800080083120313A2008F29831603130F1368
:1002B8008F120F12B129831603130F138F120F1603
:1002C800B129831603130F138F160F12B129831642
:1002D80003130F138F160F16B129831603130F1765
:1002E8008F120F12B129831603130F178F120F16CF
:1002F800B129831603130F178F160F12B12983160E
:1003080003130F178F160F16B129831603130F1730
:100318008F160F12B1292208A000A1012108003A66
:100328000319972989292008003A03195929013AFC
:1003380003195F29033A03196529013A03196B293F
:10034800073A03197129013A03197729033A03195E
:100358007D29013A0319832989290F1408000230DD
:1003680083120313A4002408A00000300A128A1183
:100378001D200A128A11831603130C1702300A1261
:100388008A1155210A128A118312031385018601E5
:100398008701880189010130831603138500033022
:1003A80086008701880189018316031788010130B7
:1003B800880089018316031381138B170B178B167B
:1003C8000B118B1503309600811201128111011453
:1003D8008114011508000B1DF229F329FD29EC30C1
:1003E8008312031381000B110A128A1121220A12A7
:1003F8008A110B1C002A012A0C2A0A128A1151227E
:100408000A128A110A128A1165220A128A110B101D
:10041800831203130C1F112A122A182A1E08F5002A
:100428007508F9000C139F1478088A00770884006F
:10043800760E8300FE0E7E0E09007B03031D252A1F
:10044800262A3F2AFB01831203138910091479080D
:10045800F30004300310F30CFF3E031D2E2A73082B
:100468000F39F4007408FA007A080A128A11C820B1
:100478000A128A11502AFB01FB0A831203138914FA
:10048800091079080F39F3007308A50025080A1226
:100498008A11C8200A128A11080083120313061849
:1004A800562A572A5A2AFD01FD0A642A7D03031D8C
:1004B8005E2A5F2A642AFD010130F000700888076F
:1004C80008008312031386186A2A6B2A6E2AFC0115
:1004D800FC0A762A7C03031D722A732A762AFC01F9
:1004E8000130880208000A128A11B3210A128A11FF
:0804F8007C2A0A128A110E2869
:04400E00D420FF3F7C
:00000001FF
