:020000040000FA
:060000000A128A110E280D
:10000800FE00030EF6000408F7000A08F8000A12BA
:100018008A1148290A128A111128F901FA01FB01EB
:10002800FC01FD0183120313A401A50183010A1237
:100038008A11B029F2007028C03083120313870098
:10004800AA28F930831203138700AA28A430831240
:1000580003138700AA28B030831203138700AA2845
:100068009930831203138700AA289230831203134E
:100078008700AA288230831203138700AA28F83041
:10008800831203138700AA28803083120313870082
:10009800AA289030831203138700AA288830831275
:1000A80003138700AA288330831203138700AA2822
:1000B800C630831203138700AA28A13083120313C2
:1000C8008700AA288630831203138700AA288E3057
:1000D800831203138700AA287208F000F10171083F
:1000E800003A03197828AA287008003A031920282A
:1000F800013A03192528033A03192A28013A031952
:100108002F28073A03193428013A03193928033AE2
:1001180003193E28013A031943280F3A03194828BE
:10012800013A03194D28033A03195228013A0319D1
:100138005728073A03195C28013A03196128033A3A
:1001480003196628013A03196B28AA2808008312A4
:100158000313A200E528831603130F138F120F123F
:100168000729831603130F138F120F1607298316F7
:1001780003130F138F160F120729831603130F1378
:100188008F160F160729831603130F178F120F12D6
:100198000729831603130F178F120F1607298316C3
:1001A80003130F178F160F120729831603130F1740
:1001B8008F160F160729831603130F178F160F12A2
:1001C80007292208A000A1012108003A0319ED28F7
:1001D800DF282008003A0319AF28013A0319B52887
:1001E800033A0319BB28013A0319C128073A03192E
:1001F800C728013A0319CD28033A0319D328013A2D
:100208000319D928DF280F140800023083120313BA
:10021800A3002308A00000300A128A11EF210A1255
:100228008A11831603130C1702300A128A11AB20A5
:100238000A128A1183120313850186018701880136
:100248008901013083160313850003308600870176
:1002580088018901013083160317880089018316F4
:10026800031381138B170B178B160B118B15033088
:1002780096008B1781120112811101148114011546
:10028800831203130C1308000B1D4B294C295C29FE
:10029800EC308312031381000B110A128A1180219A
:1002A8000A128A110130F500750883120313A40796
:1002B8000B1C5F2960296B290A128A11C9210A12AD
:1002C8008A110A128A11DD210A128A110B1083126F
:1002D80003130C1F7029712977291E08F50075086A
:1002E800A5000C139F1478088A0077088400760EFE
:1002F8008300FE0E7E0E09007B03031D84298529D9
:100308009E29FB0183120313891009142508F300A1
:1003180004300310F30CFF3E031D8D2973080F39B9
:10032800F4007408FA007A080A128A111E200A12C8
:100338008A11AF29FB01FB0A8312031389140910E0
:1003480025080F39F3007308F90079080A128A1191
:100358001E200A128A1108000A128A1109210A129B
:100368008A110A128A11FD210A128A1183120313B3
:1003780008082502031CC129C229C4290915B52961
:100388000911B5290A128A110E28831203130618B7
:10039800CE29CF29D229FD01FD0ADC297D03031DC1
:1003A800D629D729DC29FD010130F000700888071B
:1003B8000800831203138618E229E329E629FC01C1
:1003C800FC0AEE297C03031DEA29EB29EE29FC012E
:1003D800013088020800831203139F121F129F1115
:1003E8001F119F171F131F149F14831603139F01B8
:1003F80008001530831203132402031C042A052A5B
:08040800072AA4019F1408005B
:04400E00D420FF3F7C
:00000001FF
