:020000040000FA
:060000000A128A110E280D
:10000800FE00030EF9000408FA000A08FB000A12B1
:100018008A113F2E0A128A111128F001F101F2010A
:10002800F301F401F50183133C30840055300A12C2
:100038008A15AC270A128A1183010A128A11102B19
:10004800831203134D08AF002F08D4004C08AF00EB
:100058002F08D3003330A6000030A7005408AF00A3
:10006800B0012F08A8003008A9000A128A11C1247B
:100078000A128A11831203132608B1003108CA0034
:100088003330A6000030A7005408AF00B0012F0895
:10009800A0003008A1006430A2000030A3000A12BA
:1000A8008A116B270A128A11831203132108A900E7
:1000B8002008A8000A128A11C1240A128A11831280
:1000C80003132608B1002708B2004A08B300B40198
:1000D8003308A0003408A1009C30A200FF30A30020
:1000E8000A128A116B270A128A1183120313200835
:1000F8003107B70021080318210A3207B8000A306F
:10010800A6000030A7003808A9003708A8000A127E
:100118008A11C1240A128A11831203132608AF0018
:100128002F08C6003330A6000030A7005408AF00DF
:10013800B0012F08A0003008A1006430A2000030F0
:10014800A3000A128A116B270A128A118312031359
:100158002108A9002008A8000A128A11C1240A123D
:100168008A11831203132608B1002708B2009C30B5
:10017800B3003308A0004A080A128A11DA270A12C3
:100188008A1183120313B400F630B5003508A000B5
:1001980046080A128A11DA270A128A1183120313EF
:1001A80034073107B6003608C8003330A6000030DF
:1001B800A7005308AF00B0012F08A8003008A90015
:1001C8000A128A11C1240A128A11831203132608FB
:1001D800B1003108C9003330A6000030A700530829
:1001E800AF00B0012F08A0003008A1006430A200C1
:1001F8000030A3000A128A116B270A128A1183128F
:1002080003132108A9002008A8000A128A11C12492
:100218000A128A11831203132608B1002708B200B4
:100228004908B300B4013308A0003408A1009C3089
:10023800A200FF30A3000A128A116B270A128A1142
:100248008312031320083107B70021080318210A75
:100258003207B8000A30A6000030A7003808A90005
:100268003708A8000A128A11C1240A128A118312B7
:1002780003132608AF002F08C5003330A60000304E
:10028800A7005308AF00B0012F08A0003008A10054
:100298006430A2000030A3000A128A116B270A12E8
:1002A8008A11831203132108A9002008A8000A1242
:1002B8008A11C1240A128A11831203132608B10075
:1002C8002708B2009C30B3003308A00049080A127E
:1002D8008A11DA270A128A1183120313B400F6303E
:1002E800B5003508A00045080A128A11DA270A1253
:1002F8008A118312031334073107B6003608C70082
:100308004A08303EAF002F08C4004608303EAF0010
:100318002F08C0004808303EAF002F08C200490827
:10032800303EAF002F08C3004508303EAF002F080D
:10033800BF004708303EAF002F08C1000800D62A8A
:100348002C08A5002B08A4000230A6000030A70046
:100358001230AF002F08A8000A128A1140270A128B
:100368008A110F2B2C08A5002B08A4000230A60028
:100378000030A7001430AF002F08A8000A128A1115
:1003880040270A128A110F2B2C08A5002B08A4005D
:100398000230A6000030A7001630AF002F08A800D2
:1003A8000A128A1140270A128A110F2B2C08A5005D
:1003B8002B08A4000230A6000030A7001830AF00B8
:1003C8002F08A8000A128A1140270A128A110F2B37
:1003D8002C08A5002B08A4000230A6000030A700B6
:1003E8001A30AF002F08A8000A128A1140270A12F3
:1003F8008A110F2B2C08A5002B08A4000230A60098
:100408000030A7001C30AF002F08A8000A128A117C
:1004180040270A128A110F2B2C08A5002B08A400CC
:100428000230A6000030A7001E30AF002F08A80039
:100438000A128A1140270A128A110F2B2C08A500CC
:100448002B08A4000230A6000030A7002030AF001F
:100458002F08A8000A128A1140270A128A110F2BA6
:100468002C08A5002B08A4000230A6000030A70025
:100478002230AF002F08A8000A128A1140270A125A
:100488008A110F2B2C08A5002B08A4000230A60007
:100498000030A7002430AF002F08A8000A128A11E4
:1004A80040270A128A110F2B2C08A5002B08A4003C
:1004B8000230A6000030A7002630AF002F08A800A1
:1004C8000A128A1140270A128A110F2B2C08A5003C
:1004D8002B08A4000230A6000030A7002830AF0087
:1004E8002F08A8000A128A1140270A128A110F2B16
:1004F8002C08A5002B08A4000230A6000030A70095
:100508002A30AF002F08A8000A128A1140270A12C1
:100518008A110F2B2C08A5002B08A4000230A60076
:100528000030A7002C30AF002F08A8000A128A114B
:1005380040270A128A110F2B2C08A5002B08A400AB
:100548000230A6000030A7002E30AF002F08A80008
:100558000A128A1140270A128A110F2B2C08A500AB
:100568002B08A4000230A6000030A7003030AF00EE
:100578002F08A8000A128A1140270A128A110F2B85
:100588002C08A5002B08A4000230A6000030A70004
:100598001030AF002F08A8000A128A1140270A124B
:1005A8008A110F2B831203132E08003A0319DD2A30
:1005B800C42A2D08003A0319A429013A0319B629B7
:1005C800033A0319C829013A0319DA29073A031922
:1005D800EC29013A0319FE29033A0319102A013AB2
:1005E8000319222A0F3A0319342A013A0319462A11
:1005F800033A0319582A013A03196A2A073A0319D0
:100608007C2A013A03198E2A033A0319A02A013ACF
:100618000319B22AC42A08000A128A1192270A1258
:100628008A110A128A15BF270A128A110A128A1118
:10063800F1270A128A110A128A11E7260A128A1168
:100648000A128A15A5270A128A1100308312031389
:10065800A400A5000130A6000030A7000130BA00B0
:100668003A08A8000A128A1140270A128A11013092
:1006780083120313AB000030AC001030AD00003023
:10068800AE000A128A11A3210A128A1106308312B7
:100698000313AB000030AC001030AD000030AE00EA
:1006A8000A128A11A3210A128A110A128A15B4277A
:1006B8000A128A110A128A1115270A128A110030A1
:1006C80083120313AB00AC004A08BA00BB013A0816
:1006D800AD003B08AE000A128A11A3210A128A1142
:1006E800023083120313AB000030AC004608BA0096
:1006F800BB013A08AD003B08AE000A128A11A321DB
:100708000A128A11033083120313AB000030AC00C5
:100718004808BA00BB013A08AD003B08AE000A120F
:100728008A11A3210A128A11053083120313AB0020
:100738000030AC004908BA00BB013A08AD003B08DC
:10074800AE000A128A11A3210A128A1107308312F5
:100758000313AB000030AC004508BA00BB013A08EF
:10076800AD003B08AE000A128A11A3210A128A11B1
:10077800083083120313AB000030AC004708BA00FE
:10078800BB013A08AD003B08AE000A128A11A3214A
:100798000A128A110A128A11B4260A128A110A1236
:1007A8008A112A250A128A110A3083120313AB0010
:1007B8000030AC003E08BA00BB013A08AD003B0867
:1007C800AE000A128A11A3210A128A110B30831271
:1007D8000313AB000030AC003D08BA00BB013A0877
:1007E800AD003B08AE000A128A11A3210A128A1131
:1007F8000C3083120313AB000030AC003C08BA0085
:10080800BB013A08AD003B08AE000A128A11A321C9
:100818000A128A11592B0A128A110E2883120313FD
:10082800A300892C9F121F129F111F111F149F14C0
:10083800831603139F01C02C9F121F129F111F15AF
:100848001F149F141C2C9F121F129F151F111F1479
:100858009F141C2C9F121F129F151F151F149F14E5
:100868001C2C9F121F169F111F111F149F141C2C44
:100878009F121F169F111F151F149F141C2C9F12C7
:100888001F169F151F111F149F141C2C9F121F1633
:100898009F151F151F149F141C2C9F161F129F11A4
:1008A8001F111F149F141C2C9F161F129F111F1518
:1008B8001F149F141C2C9F161F129F151F111F1405
:1008C8009F141C2C9F161F129F151F151F149F1471
:1008D8001C2C9F161F169F111F111F149F141C2CD0
:1008E8009F161F169F111F151F149F141C2C9F164F
:1008F8001F169F151F111F149F141C2C9F161F16BF
:100908009F151F151F149F141C2C2308A100A2015A
:100918002208003A0319912C822C2108003A031965
:10092800162C013A0319202C033A0319272C013AF3
:1009380003192E2C073A0319352C013A03193C2CBC
:10094800033A0319432C013A03194A2C0F3A0319A5
:10095800512C013A0319582C033A03195F2C013A18
:100968000319662C073A03196D2C013A0319742CE4
:10097800033A03197B2C822C080083120313AC0161
:10098800A71FC72CC82CCF2CA609A709A60A03198C
:10099800A70AAC01AC0AA91FD22CD32CDC2CA809BD
:1009A800A909A80A0319A90A0130AA002A08AC064D
:1009B800AD01AE01260827040319E32CE42C1B2DF6
:1009C800AB01AB0AF22C01300310A60DA70DFF3EB8
:1009D800031DE82C0130AA002A08AB07A71FF52C35
:1009E800F62CE72C01300310AD0DAE0DFF3E031DB4
:1009F800F72C27082902031D032D26082802031CAB
:100A0800062D072D0E2D2608A8022708031CA9036A
:100A1800A9022D1401300310A70CA60CFF3E031DDC
:100A28000F2D0130AB02031D1A2D1B2DF62C2C089F
:100A380003191F2D202D252DAD09AE09AD0A031967
:100A4800AE0A2E08A7002D08A600080064308312FD
:100A58000313A6000030A7004B08AF00B0012F0811
:100A6800A8003008A9000A128A11C1240A128A11A2
:100A7800831203132608B1003108BE000A30A6000D
:100A88000030A7003E08AF00B0012F08A0003008D2
:100A9800A1009C30A200FF30A3000A128A116B2724
:100AA8000A128A11831203134B082007A800210891
:100AB8000318210AA9000A128A11C1240A128A11EC
:100AC800831203132608B1003108BD009C30AF0023
:100AD8002F08A0003E080A128A11DA270A128A1182
:100AE80083120313B000F630B1003108A0003D08AE
:100AF8000A128A11DA270A128A118312031330079D
:100B08004B07B2003208BC00080083120313A2008E
:100B1800C32D831603130F138F120F12E52D83169F
:100B280003130F138F120F16E52D831603130F13DC
:100B38008F160F12E52D831603130F138F160F163A
:100B4800E52D831603130F178F120F12E52D831649
:100B580003130F178F120F16E52D831603130F17A4
:100B68008F160F12E52D831603130F178F160F1606
:100B7800E52D831603130F178F160F12E52D220884
:100B8800A000A1012108003A0319CB2DBD2D200892
:100B9800003A03198D2D013A0319932D033A0319CD
:100BA800992D013A03199F2D073A0319A52D013AEA
:100BB8000319AB2D033A0319B12D013A0319B72DC7
:100BC800BD2D0F140800162E831203134408990034
:100BD8003E2E2E308312031399003E2E83120313E8
:100BE800400899003E2E83120313420899003E2EB6
:100BF80020308312031399003E2E831203134308F7
:100C080099003E2E831203133F0899003E2E83124B
:100C18000313410899003E2E0D30831203139900E7
:100C2800F5013E2E7508F600F7017708003A03191A
:100C38001E2E102E7608003A0319E82D013A0319E2
:100C4800E82D033A0319ED2D013A0319F22D073A5D
:100C58000319F72D013A0319FC2D033A0319012E44
:100C6800013A0319ED2D0F3A0319062E013A03191B
:100C78000B2E102E0800831203130C1F442E452E32
:100C8800462E0C138C1E492E4A2E4E2E1A08F8009A
:100C98007808F4000C1E512E522E692E0130F800EF
:100CA8007808F5070A128A11E7250A128A118316AD
:100CB80003130C12831203135203031D642E652EB3
:100CC800672ED201692ED201D20A0B1D6C2E6D2E11
:100CD800742EEC3081000B110130F8007808F2070F
:100CE8007B088A007A088400790E8300FE0E7E0E47
:100CF800090006308A000408840A82070034413457
:100D08004434433431342034413444344334323469
:100D1800203443344F344E34543400342E340034A9
:100D28003034003431340034323400343334003455
:100D38003434003435340034363400343734003435
:100D48003834003439340034413400344234003407
:100D580043340034443400344534003446340034D9
:100D68002B307406031DB92EBA2EBC2EF101F10AE0
:100D78000D307406031DC12EC22ECE2E7103031D25
:100D8800C62EC72ECE2EF101013083120313A00008
:100D98002008CB072D307406031DD32ED42ED62E53
:100DA800F001F00A0D307406031DDB2EDC2EE62E52
:100DB8007003031DE02EE12EE62EF10101308312AF
:100DC8000313CB0208008316031308138813860144
:100DD8008312031308138813860141308312031307
:100DE800A400ED30A300A30BF72EA40BF72EFC2EC6
:100DF80002300A128A15EA270A128A1138300A12B2
:100E08008A15EA270A128A110C300A128A15EA276B
:100E18000A128A1106300A128A15EA270A128A115A
:100E28000800831203135203031D1B2F1C2F302F9E
:100E38001E08B9003908CD000230B9003908A000F1
:100E480001300A128A1112240A128A110A128A110E
:100E580024200A128A113F2F1E08B9003908CC0035
:100E68000230B9003908A00000300A128A11122491
:100E78000A128A112A2F08004D2F2408803EA90043
:100E88002908AA005C2F2408C03EA9002908AA0046
:100E98005C2F831203132708003A0319542F412F9C
:100EA8002608013A0319412F033A0319472F412F06
:100EB8002A080A128A15EA270A128A1183120313CA
:100EC80028080A128A11B7270A128A110800831201
:100ED8000313A401A501201C722F732F792F220858
:100EE800A4070318A50A2308A50701300310A20DBB
:100EF800A30DFF3E031D7A2F01300310A10CA00C97
:100F0800FF3E031D812F20082104031D8C2F8D2FE8
:100F18006F2F2508A1002408A000080006300A1237
:100F28008A1189250A128A110B17831603130C17C5
:100F3800831203130C138B179F148B160B11850147
:100F48008601870188018901033083160313850010
:100F580086018030870088018901033083160317D2
:100F680088008901080083120313A300CD2F2308EA
:100F780084000A128A117D260A128A110A128A1519
:100F8800D7270A128A11013083120313A2002208FC
:100F9800A307230884000A128A117D260A128A11DF
:100FA800003A031DD82FD92FBB2F08008312031333
:100FB800A300A201231CE12FE22FE62F2008A100A5
:100FC8002108A2070310A00D0310A30C2308031D7A
:100FD800EE2FEF2FDE2F22080800831603131812B6
:100FE80098161815181383160317871119308316C6
:060FF8000313990008003C
:101F4A0001300A128A15EA270A128A150800640063
:101F5A008001840A0406031900340406AD2F1530E3
:101F6A007202031CB92FBA2FBE2FF2018312031378
:101F7A009F14080083120313981718161811981043
:101F8A001813831603138C16080083120313881779
:101F9A00CE2FCF2F0000831203138813D42FD52FEF
:101FAA000000080083120313A10008172108860005
:101FBA000A128A15CA270A128A150F3083120313C6
:101FCA00A000A00BE62FE92F080083120313A2003A
:101FDA000813220886000A128A15CA270A128A15C5
:101FEA00033083120313A1009730A000A00BFB2F2C
:061FFA00A10BFB2F080003
:04400E00D420FF3F7C
:00000001FF
