:020000040000FA
:060000000A128A110C280F
:10000800FE00030EF7000A08F8000A128A111928E0
:100018000A128A110F28F001F101F201F301F4012B
:10002800F50183010A128A113E280B1C1C281D2881
:1000380028280A128A11A0200A128A110A128A1183
:10004800B4200A128A110B10831203138C1D2D2859
:100058002E28372808080A128A11CC200A128A1179
:10006800831203138C1178088A00770E8300FE0E22
:100078007E0E09000A128A1161200A128A1183125F
:100088000313A001A101A20124300A128A118220BF
:100098000A128A11831203138C1D532854284E28E0
:1000A80008080A128A11C6200A128A118312031339
:1000B8008C114E280A128A110C2883120313850109
:1000C800860187018801890183160313850103309E
:1000D8008600183087008801890183160317880174
:1000E800890157308316031381008B170B178B1563
:1000F8000B1003309500033096000800F9008316B2
:1001080003138712791D89288A28922883120313DA
:10011800220883160313940087159A288312031361
:100128002008220483160313940087117908831288
:100138000313210494000800831203130618A5284A
:10014800A628A928F501F50AB3287503031DAD28CB
:10015800AE28B328F5010130F600760888070800B4
:10016800831203138618B928BA28BD28F401F40AA3
:10017800C5287403031DC128C228C528F40101300D
:1001880088020800F9007908831203139300080015
:0C019800F60076088312031393000800A1
:04400E00D420FF3F7C
:00000001FF
