:020000040000FA
:060000000A128A110C280F
:10000800FE00030EF8000A08F9000A128A113728C0
:100018000A128A110F28F001F101F201F301F4012B
:10002800F501F60183010A128A117328831203135A
:1000380085018601870188018901831603138501DB
:100048000330860087018801890183160317880118
:1000580089018316031381138B170B178B15033034
:1000680096008B1708000B1C3A283B2846280A12D2
:100078008A114D200A128A110A128A1161200A1265
:100088008A110B1079088A00780E8300FE0E7E0E06
:100098000900831203130618522853285628F6011C
:1000A800F60A60287603031D5A285B286028F601A3
:1000B8000130F700770885070800831203138618B4
:1000C800662867286A28F501F50A72287503031D52
:1000D8006E286F287228F5010130850208000A127F
:1000E8008A111A200A128A1178280A128A110C28F1
:04400E00D420FF3F7C
:00000001FF
