:020000040000FA
:060000000A128A110C280F
:10000800FE00030EF2000A08F3000A128A11C8283B
:100018000A128A110F28F701F801F90183010A125F
:100028008A11562983120313A0008D289F121F12CC
:100038009F111F111F149F14831603139F01C428B7
:100048009F121F129F111F151F149F1420289F1203
:100058001F129F151F111F149F1420289F121F1273
:100068009F151F151F149F1420289F121F169F11DC
:100078001F111F149F1420289F121F169F111F1550
:100088001F149F1420289F121F169F151F111F143D
:100098009F1420289F121F169F151F151F149F14A9
:1000A80020289F161F129F111F111F149F1420280C
:1000B8009F161F129F111F151F149F1420289F168B
:1000C8001F129F151F111F149F1420289F161F12FF
:1000D8009F151F151F149F1420289F161F169F1168
:1000E8001F111F149F1420289F161F169F111F15DC
:1000F8001F149F1420289F161F169F151F111F14C9
:100108009F1420289F161F169F151F151F149F1434
:1001180020282008F500F6017608003A03199528EA
:1001280086287508003A03191A28013A0319242861
:10013800033A03192B28013A03193228073A0319FD
:100148003928013A03194028033A03194728013A84
:1001580003194E280F3A03195528013A03195C2848
:10016800033A03196328013A03196A28073A03195D
:100178007128013A03197828033A03197F28862839
:100188001F169F169F130800831203130C1FCD28F8
:10019800CE28F6281E08F1007108F8000C1378081C
:1001A800F1007108F700623077020318DC28DD28B7
:1001B800DF280230880062307702031CE428E52833
:1001C800ED286F3077020318EA28EB28ED28043071
:1001D80088006F307702031CF228F328F5280830CE
:1001E80088009F148C1DF928FA28052978088600AC
:1001F80078080A128A117D210A128A1183120313C0
:100208008C1173088A00720E8300FE0E7E0E0900A0
:10021800023083120313A1002108F40000300A12EF
:100228008A1116200A128A11831603130C178312D7
:10023800031385018601870188018901213083160E
:10024800031385008601880189010130831603178D
:1002580088008B170B17831203130C130C138C11C4
:10026800831603138C15080083120313A00083164A
:100278000313871283120313201D432944294A2993
:10028800760883160313940087155029740876049A
:10029800831603139400871183120313200875042F
:1002A80094000800803083120313A2002208F4008F
:1002B800F501F60124300A128A1138210A128A112E
:1002C8000A128A110C210A128A110A128A11722141
:1002D8000A128A1169290A128A110C281530790222
:1002E800031C772978297C29F901831203139F14A9
:0E02F8000800F0007008831203139300080042
:04400E00D420FF3F7C
:00000001FF
