:020000040000FA
:060000000A128A110E280D
:10000800FE00030EF9000408FA000A08FB000A12B1
:100018008A11752A0A128A111128F001F101F201D8
:10002800F301F401F5018313373084004B300A12D1
:100038008A1197230A128A1183010A128A11242825
:100048000A128A1120230A128A1106300A128A110A
:10005800BA210A128A110A128A115C230A128A1119
:100068000A128A1140230A128A11003083120313DC
:10007800B1000130B0008630AF00A030AE000A12E7
:100088008A11B4220A128A118312031305100A1264
:100098008A1185230A128A11D03083120313A00013
:1000A8000030A1000A128A1172230A128A11003044
:1000B80083120313A000A1000A128A1172230A12E4
:1000C8008A110A128A118E230A128A11D1308312D8
:1000D8000313A0000030A1000A128A1172230A1229
:1000E8008A11013083120313A0000030A1000A1204
:1000F8008A11EE220A128A11831203132008B6000D
:100108003608C3000130A0000030A1000A128A118D
:10011800EE220A128A11831203132008B600360849
:10012800F0000130A0000030A1000A128A11EE226E
:100138000A128A11831203132008B6003608F10048
:100148000130A0000030A1000A128A11EE220A1222
:100158008A11831203132008B6003608C200013042
:10016800A0000030A1000A128A11EE220A128A1198
:10017800831203132008B6003608F2000130A000ED
:100188000030A1000A128A11EE220A128A11831283
:1001980003132008B6003608F3000030A000A100C1
:1001A8000A128A11EE220A128A11831203132008F6
:1001B800B6003608C1000A128A117C230A128A1175
:1001C8000A128A1118220A128A1148280A128A1158
:1001D8000E28003083120313AC000030AB0000304F
:1001E800AA000030A90023082204210420040319CE
:1001F800FE28FF284C29AD01AD0A0F290130A800BF
:100208000310A00DA10DA20DA30DA80B0429013008
:10021800A8002808AD07A31F1229132902290130B5
:10022800A8000310A90DAA0DAB0DAC0DA80B15293C
:1002380023082702031D2A2922082602031D2A292A
:1002480021082502031D2A2920082402031C2D2920
:100258002E293D292008A4022108031C210FA502EC
:100268002208031C220FA6022308031C230FA7023F
:10027800291401300310A30CA20CA10CA00CFF3E02
:10028800031D3E290130AD02031D4B294C291329BA
:100298002C08A3002B08A2002A08A1002908A00006
:1002A800080092293908303E99000130F600760896
:1002B800C807B9293E08303E99000130F600760893
:1002C800C807B9293A3099000130F6007608C807FE
:1002D800B9293808303E99000130F6007608C80779
:1002E800B9293D08303E99000130F6007608C80764
:1002F800B9293708303E99000130F6007608C8075A
:10030800B9293C08303E99000130F6007608C80744
:10031800B9290A309900C801C601B9298312031303
:100328004808F600F7017708003A03199C29B9290B
:100338007608003A03195629013A03195E29033A47
:1003480003196629013A03196D29073A0319752912
:10035800013A03196629033A03197D29013A031959
:1003680085290F3A03198D29B92908008312031327
:10037800A200F429831603130F138F120F12162AE3
:10038800831603130F138F120F16162A83160313DF
:100398000F138F160F12162A831603130F138F16B7
:1003A8000F16162A831603130F178F120F12162A09
:1003B800831603130F178F120F16162A83160313AB
:1003C8000F178F160F12162A831603130F178F167F
:1003D8000F16162A831603130F178F160F12162AD5
:1003E8002208A000A1012108003A0319FC29EE29DE
:1003F8002008003A0319BE29013A0319C429033A0F
:100408000319CA29013A0319D029073A0319D62929
:10041800013A0319DC29033A0319E229013A0319BD
:10042800E829EE290F140800730883120313A000AB
:1004380004300310A00CFF3E031D1D2A20080139BB
:10044800A1002108BB0073080F39A0002008C000D4
:100458007208A00004300310A00CFF3E031D2F2AD1
:1004680020080339A1002108BA0072080F39A0003A
:100478002008BF007108A00004300310A00CFF3E44
:10048800031D412A20080339A1002108B900710879
:100498000F39A0002008BE007008A0000430031027
:1004A800A00CFF3E031D532A20080739A10021088C
:1004B800B80070080F39A0002008BD004308A0004C
:1004C80004300310A00CFF3E031D652A20080739DD
:1004D800A1002108B70043080F39A0002008BC007C
:1004E8000800831203130C1E7A2A7B2A862A0A1212
:1004F8008A1155210A128A11831603130C128312CA
:1005080003130C128C1E892A8A2A962A1A08F800C4
:100518007808C4000A128A1167230A128A11831202
:1005280003138C160B1D992A9A2AAB2AEC308100EA
:100538000B110130F8007808C7070A304706031D79
:10054800A62AA72AAB2AC701831603130C167B0811
:100558008A007A088400790E8300FE0E7E0E090058
:100568002830831203139400831603139101831216
:1005780003132E08B2002F08B3003008B400310866
:10058800B50002300310B20DB30DB40DB50DFF3E2A
:10059800031DC62A3508A3003408A2003308A100A9
:1005A8003208A0000030A7007A30A6001230A5005B
:1005B8000030A4000A128A11ED200A128A1183124F
:1005C80003132008FF3E8316031393009401871535
:1005D800071608000A128A114F230A128A11831675
:1005E800031391150A128A114F230A128A118312D2
:1005F80003131308A200A3012208A4002308A500DE
:100608000A128A114F230A128A1183120313200334
:100618002104031D102B112B152B83160313911284
:10062800182B83160313911611168312031325082A
:10063800A1002408A0000800831203138501860185
:1006480087018801890183160313850186018701C3
:100658008801890183160317880189018B170B17F5
:100668008B160B11831603130C16811201128111BC
:100678000114811401150800831603131812981623
:1006880018151813831603178711193083160313C7
:1006980099009A010800831603131419542B552B3B
:1006A8004F2B11081F39031D5A2B5B2B4F2B0800AA
:1006B8008312031398171816181198101813831615
:1006C80003138C160800831203134403031D6D2BB8
:1006D8006E2B712BC601C60A051008000A128A1172
:1006E8004F230A128A11831203132008930008006B
:1006F8000A128A114F230A128A118316031311153D
:1007080008000A128A114F230A128A11831603134A
:10071800111408000A128A114F230A128A1183162B
:1007280003139114080064008001840A0406031965
:0607380000340406982BBA
:04400E00D420FF3F7C
:00000001FF
