:020000040000FA
:060000000A128A110C280F
:10000800FE00030EF1000A08F2000A128A11F7290D
:100018000A128A110F28F801F901FA018313203016
:1000280084003C300A128A1120240A128A118301A2
:100038000A128A111F280A128A1174230A128A11B5
:100048008312031305148514051085100030CC00A5
:100058000130CB008630CA00A030C9000A128A11CC
:1000680001230A128A110A128A110E240A128A110D
:10007800D030F3000030F4000A128A11FB230A1270
:100088008A110030F300F4000A128A11FB230A12C5
:100098008A110A128A1117240A128A11D130F30020
:1000A8000030F4000A128A11FB230A128A11013067
:1000B800F3000030F4000A128A11A4230A128A11EC
:1000C800730883120313CD004D08AE000130F3000E
:1000D8000030F4000A128A11A4230A128A11730844
:1000E80083120313CD004D08AF000130F300003038
:1000F800F4000A128A11A4230A128A1173088312BF
:100108000313CD004D08B0000130F3000030F400B7
:100118000A128A11A4230A128A117308831203137C
:10012800CD004D08AD000130F3000030F4000A1294
:100138008A11A4230A128A11730883120313CD00AB
:100148004D08F8000130F3000030F4000A128A115B
:10015800A4230A128A11730883120313CD004D08D1
:10016800F9000030F300F4000A128A11A4230A12DD
:100178008A11730883120313CD004D08AC000A12CC
:100188008A1105240A128A110A128A113E210A12BA
:100198008A110A128A113B230A128A1137280A1275
:1001A8008A110C28003083120313C7000030C600E0
:1001B8000030C5000030C4003F083E043D043C0444
:1001C8000319E728E8283529C801C80AF8280130A2
:1001D800F3000310BC0DBD0DBE0DBF0DF30BED28D4
:1001E8000130F3007308C807BF1FFB28FC28EB2861
:1001F8000130F3000310C40DC50DC60DC70DF30B78
:10020800FE283F084302031D13293E084202031D2E
:1002180013293D084102031D13293C084002031C11
:100228001629172926293C08C0023D08031C3D0F42
:10023800C1023E08031C3E0FC2023F08031C3F0FC9
:10024800C302441401300310BF0CBE0CBD0CBC0C1F
:10025800FF3E031D27290130C802031D3429352913
:10026800FC284708BF004608BE004508BD004408F2
:10027800BC0008007908F30004300310F30CFF3EBB
:10028800031D412973080139F4007408831203130C
:10029800A60079080F39F3007308AB007808F3005B
:1002A80004300310F30CFF3E031D5529730803396E
:1002B800F4007408A50078080F39F3007308AA0041
:1002C8003008F30004300310F30CFF3E031D6729C8
:1002D80073080339F4007408A40030080F39F300D8
:1002E8007308A9002F08F30004300310F30CFF3E35
:1002F800031D792973080739F4007408A3002F082F
:100308000F39F3007308A8002E08F3000430031017
:10031800F30CFF3E031D8B2973080739F40074089A
:10032800A2002E080F39F3007308A7000800F50093
:10033800D329831603130F138F120F12F52983166F
:1003480003130F138F120F16F529831603130F13B8
:100358008F160F12F529831603130F138F160F1616
:10036800F529831603130F178F120F12F529831619
:1003780003130F178F120F16F529831603130F1780
:100388008F160F12F529831603130F178F160F16E2
:10039800F529831603130F178F160F12F529750801
:1003A800F300F4017408003A0319DB29CD29730816
:1003B800003A03199D29013A0319A329033A03199D
:1003C800A929013A0319AF29073A0319B529013AAE
:1003D8000319BB29033A0319C129013A0319C7298B
:1003E800CD290F140800831203138C1EFC29FD2944
:1003F8002E2AFA011A08F0007008FA0030307A063E
:10040800031D072A082A092A851031307A06031D98
:100418000E2A0F2A102A851432307A06031D152A4F
:10042800162A172A051033307A06031D1C2A1D2A9E
:100438001E2A051434307A06031D232A242A262A64
:10044800B601B60A35307A06031D2B2A2C2A2E2A25
:10045800BA01BA0A0B1D312A322A402AEC3081002F
:100468000B110130F0007008B7070A303706031D7A
:100478003E2A3F2A402AB70172088A00710E83007B
:10048800FE0E7E0E09006F2A2208303E9900831660
:100498000313981C502A512A4B2A0130F300730881
:1004A80083120313B207842A2708303E9900831663
:1004B8000313981C602A612A5B2A512A3A30990052
:1004C80083160313981C692A6A2A642A8312031361
:1004D800B201B601842A831203133208F300F4012F
:1004E8007408003A0319792A842A7308003A031910
:1004F800482A013A0319582A033A0319622A842A16
:100508000800AD2A2308303E990083160313981C6F
:100518008E2A8F2A892A0130F30073088312031365
:10052800B307C22A2808303E990083160313981C83
:100538009E2A9F2A992A8F2A3A30990083160313F4
:10054800981CA72AA82AA22A83120313B301B6016A
:10055800C22A831203133308F300F4017408003A23
:100568000319B72AC22A7308003A0319862A013ADE
:100578000319962A033A0319A02AC22A0800EB2A6B
:100588002408303E990083160313981CCC2ACD2AE0
:10059800C72A0130F300730883120313B407002B32
:1005A8002908303E990083160313981CDC2ADD2A9B
:1005B800D72ACD2A3A30990083160313981CE52AC6
:1005C800E62AE02A83120313B401B601002B831232
:1005D80003133408F300F4017408003A0319F52AE8
:1005E800002B7308003A0319C42A013A0319D42AC4
:1005F800033A0319DE2A002B08002830831203135C
:100608009400831603139101831203134908F4001D
:100618004A08F5004B08F6004C08F70002300310B2
:10062800F40DF50DF60DF70DFF3E031D132B77089E
:10063800BF007608BE007508BD007408BC00003015
:10064800C3007A30C2001230C1000030C0000A1264
:100658008A11D6200A128A11831203133C08FF3E1E
:100668008316031393009401871507160800831255
:1006780003133603031D412B422B732B0A128A11D5
:1006880047220A128A110130F500750883120313F4
:10069800B10713303106031D522B532B732B0A124B
:1006A8008A1185220A128A1183120313B1010130BB
:1006B800A0070318A10A0030A107AF3020060430B4
:1006C80003192106031D692B6A2B732B0A128A1141
:1006D800C3220A128A1183120313A001A101080080
:1006E8008312031385018601870188018901831616
:1006F8000313850186018701880189018316031781
:10070800880189018B170B178B160B11831603139E
:100718008C16811201128111011481140115063001
:100728000A128A119B210A128A110A128A11F023CD
:100738000A128A110A128A11D4230A128A1108008D
:100748000A128A11E3230A128A11831603139115D8
:100758000A128A11E3230A128A1183120313130857
:10076800F500F6017508BC007608BD000A128A116A
:10077800E3230A128A1173037404031DC42BC52BC7
:10078800C92B831603139112CC2B831603139116CE
:100798001116831203133D08F4003C08F300080007
:1007A80083160313181298161815181383160317AF
:1007B800871119308316031399009A0108008316CC
:1007C80003131419E82BE92BE32B11081F39031D18
:1007D800EE2BEF2BE32B0800831203139817181640
:1007E800181198101813831603138C1608000A1290
:1007F8008A11E3230A128A117308831203139300E0
:1008080008000A128A11E3230A128A1183160313B5
:10081800111508000A128A11E3230A128A11831695
:100828000313111408000A128A11E3230A128A1109
:10083800831603139114080064008001840A0406D7
:08084800031900340406212C01
:04400E00D420FF3F7C
:00000001FF
