:020000040000FA
:060000000A128A110E280D
:10000800FE00030EF9000408FA000A08FB000A12B1
:100018008A116C2B0A128A111128F001F101F201E0
:10002800F301F401F50183120313B701B801B90113
:10003800BA01BB01BC01BD01BE01BF01C001C101C4
:10004800C201C301C401C50183010A128A112C2807
:100058000A128A11D4230A128A1106300A128A1146
:1000680077220A128A110A128A1110240A128A1196
:100078000A128A11F4230A128A1100308312031318
:10008800B1000130B0008630AF00A030AE000A12D7
:100098008A1132230A128A110A128A11A3210A121A
:1000A8008A110A128A1137240A128A11D03083124F
:1000B8000313A0000030A1000A128A111B240A129F
:1000C8008A11003083120313A000A1000A128A11BA
:1000D8001B240A128A110A128A1125240A128A116B
:1000E800D13083120313A0000030A1000A128A1134
:1000F8001B240A128A11013083120313A000003056
:10010800A1000A128A11A2230A128A118312031368
:100118002008B6003608F0000130A0000030A10029
:100128000A128A11A2230A128A11831203132008C1
:10013800B6003608F1000130A0000030A1000A1214
:100148008A11A2230A128A11831203132008B60007
:100158003608F2000130A0000030A1000A128A110E
:10016800A2230A128A11831203132008B600360844
:10017800C2000130A0000030A1000A128A11A22397
:100188000A128A11831203132008B6003608F300F6
:100198000130A0000030A1000A128A11A2230A121D
:1001A8008A11831203132008B6003608F4000030C1
:1001B800A000A1000A128A11A2230A128A1183122E
:1001C80003132008B6003608C1000A128A112E242B
:1001D8000A128A110A128A11D5220A128A1155287E
:1001E8000A128A110E286B29831203133708303E2E
:1001F80099000130F6007608F507A2298312031347
:100208003C08303E99000130F6007608F507A2292F
:100218002E308312031399000130F6007608F50793
:10022800A229831203133808303E99000130F600E2
:100238007608F507A229831203133D08303E99007A
:100248000130F6007608F507A2298312031339084E
:10025800303E99000130F6007608F507A22983128E
:1002680003133E08303E99000130F6007608F50782
:10027800A229831203133A08303E99000130F60090
:100288007608F507A229831203133F08303E990028
:100298000130F6007608F507A229831203133B08FC
:1002A800303E99000130F6007608F507A22983123E
:1002B80003134008303E99000130F6007608F50730
:1002C800A2290A30831203139900F501A22975089F
:1002D800F600F7017708003A03197329A22976086E
:1002E800003A0319F828013A03190229033A0319B5
:1002F8000C29013A03191529073A03191F29013A4C
:1003080003190C29033A03192929013A0319332936
:100318000F3A03190C29013A03193D29033A031925
:100328004729013A03190C29073A03195129013AB7
:1003380003195B29033A03196529A22908000A123F
:100348008A1137240A128A11D03083120313A000AD
:100358000030A1000A128A111B240A128A110030E7
:1003680083120313A000A1000A128A111B240A1287
:100378008A11003083120313A000A1000A128A1107
:100388001B240A128A11353083120313A00000308F
:10039800A1000A128A111B240A128A110130831241
:1003A8000313A0000030A1000A128A111B240A12AC
:1003B8008A11013083120313A0000030A1000A1231
:1003C8008A111B240A128A11013083120313A00018
:1003D8000030A1000A128A111B240A128A11033064
:1003E80083120313A0000030A1000A128A111B24F3
:1003F8000A128A11213083120313A0000030A100D1
:100408000A128A111B240A128A110A128A112E242E
:100418000A128A110800003083120313AC0000305E
:10042800AB000030AA000030A900230822042104F0
:1004380020040319202A212A6E2AAD01AD0A312A87
:100448000130A8000310A00DA10DA20DA30DA80B4B
:10045800262A0130A8002808AD07A31F342A352A08
:10046800242A0130A8000310A90DAA0DAB0DAC0D6C
:10047800A80B372A23082702031D4C2A2208260224
:10048800031D4C2A21082502031D4C2A200824029A
:10049800031C4F2A502A5F2A2008A4022108031CA3
:1004A800210FA5022208031C220FA6022308031C01
:1004B800230FA702291401300310A30CA20CA10CCE
:1004C800A00CFF3E031D602A0130AD02031D6D2AFA
:1004D8006E2A352A2C08A3002B08A2002A08A1009E
:1004E8002908A000080083120313A200B12A83166A
:1004F80003130F138F120F12D32A831603130F132C
:100508008F120F16D32A831603130F138F160F1289
:10051800D32A831603130F138F160F16D32A8316A5
:1005280003130F178F120F12D32A831603130F17F3
:100538008F120F16D32A831603130F178F160F1255
:10054800D32A831603130F178F160F16D32A831671
:1005580003130F178F160F12D32A2208A000A10128
:100568002108003A0319B92AAB2A2008003A0319CE
:100578007B2A013A0319812A033A0319872A013A87
:1005880003198D2A073A0319932A013A0319992A5C
:10059800033A03199F2A013A0319A52AAB2A0F1413
:1005A8000800740883120313A00004300310A00C81
:1005B800FF3E031DDA2A20080139A1002108BB00EB
:1005C80074080F39A0002008C0007308A000043088
:1005D8000310A00CFF3E031DEC2A20080339A100DC
:1005E8002108BA0073080F39A0002008BF0072085C
:1005F800A00004300310A00CFF3E031DFE2A2008B3
:100608000339A1002108B90072080F39A000200899
:10061800BE007108A00004300310A00CFF3E031DAB
:10062800102B20080739A1002108B80071080F39DC
:10063800A0002008BD007008A00004300310A00C22
:10064800FF3E031D222B20080739A1002108B7000F
:1006580070080F39A0002008BC0008002830831259
:1006680003139400831603139101831203132E08B6
:10067800B2002F08B3003008B4003108B5000230CA
:100688000310B20DB30DB40DB50DFF3E031D442B81
:100698003508A3003408A2003308A1003208A000DE
:1006A8000030A7007A30A6001230A5000030A40060
:1006B8000A128A110F220A128A11831203132008C0
:1006C800FF3E83160313930094018715071608004D
:1006D800831203130C1E712B722B7A2B0A128A11A8
:1006E800F7200A128A11831603130C1283128C1E28
:1006F8007E2B7F2B842B1A08F8007808C3008C12F5
:100708000B1D872B882B992BEC3081000B110130A6
:10071800F8007808C4070A304406031D942B952B6B
:10072800992BC401831603130C167B088A007A08D8
:100738008400790E8300FE0E7E0E09000A128A11CB
:1007480003240A128A118316031391150A128A11B7
:1007580003240A128A11831203131308A200A301A7
:100768002208A4002308A5000A128A1103240A12E9
:100778008A118312031320032104031DC42BC52BE4
:10078800C92B831603139112CC2B831603139116CE
:100798001116831203132508A1002408A0000800DD
:1007A8008312031385018601870188018901831655
:1007B80003138501860187018801890183160317C0
:1007C800880189018B170B178B160B1183160313DE
:1007D8000C168112011281110114811401150800EF
:1007E800831603131812981618151813831603176F
:1007F800871119308316031399009A01080083168C
:1008080003131419082C092C032C11081F39031D74
:100818000E2C0F2C032C080083120313981718169C
:10082800181198101813831603138C1608000A124F
:100838008A1103240A128A118312031320089300D1
:1008480008000A128A1103240A128A118316031354
:10085800911408000A128A1103240A128A118316B5
:100868000313111508000A128A1103240A128A11A7
:0808780083160313111408009C
:04400E00D420FF3F7C
:00000001FF
