:020000040000FA
:060000000A128A110C280F
:10000800FE00030EF1000A08F2000A128A115A2AA9
:100018000A128A110F28F801F901FA018313203016
:1000280084003C300A128A114A240A128A11830178
:100038000A128A111F280A128A119E230A128A118B
:100048008312031305148514051085100030CC00A5
:100058000130CB008630CA00A030C9000A128A11CC
:1000680064230A128A110A128A1138240A128A1180
:10007800D030F3000030F4000A128A1125240A1245
:100088008A110030F300F4000A128A1125240A129A
:100098008A110A128A1141240A128A11D130F300F6
:1000A8000030F4000A128A1125240A128A1101303C
:1000B800F3000030F4000A128A11CE230A128A11C2
:1000C800730883120313CD004D08AE000130F3000E
:1000D8000030F4000A128A11CE230A128A1173081A
:1000E80083120313CD004D08AF000130F300003038
:1000F800F4000A128A11CE230A128A117308831295
:100108000313CD004D08B0000130F3000030F400B7
:100118000A128A11CE230A128A1173088312031352
:10012800CD004D08AD000130F3000030F4000A1294
:100138008A11CE230A128A11730883120313CD0081
:100148004D08B1000130F3000030F4000A128A11A2
:10015800CE230A128A11730883120313CD004D08A7
:10016800B2000030F300F4000A128A11CE230A12FA
:100178008A11730883120313CD004D08AC000A12CC
:100188008A112F240A128A110A128A11A1210A122D
:100198008A110A128A113E210A128A1137280A1274
:1001A8008A110C28003083120313C7000030C600E0
:1001B8000030C5000030C4003F083E043D043C0444
:1001C8000319E728E8283529C801C80AF8280130A2
:1001D800F3000310BC0DBD0DBE0DBF0DF30BED28D4
:1001E8000130F3007308C807BF1FFB28FC28EB2861
:1001F8000130F3000310C40DC50DC60DC70DF30B78
:10020800FE283F084302031D13293E084202031D2E
:1002180013293D084102031D13293C084002031C11
:100228001629172926293C08C0023D08031C3D0F42
:10023800C1023E08031C3E0FC2023F08031C3F0FC9
:10024800C302441401300310BF0CBE0CBD0CBC0C1F
:10025800FF3E031D27290130C802031D3429352913
:10026800FC284708BF004608BE004508BD004408F2
:10027800BC0008007A03031D422943295D29143074
:1002880079020318482949295D2904308312031388
:100298002102AF30031920020318532954295D297C
:1002A8000A128A11AA220A128A110130F500750869
:1002B800F9077A03031D6129622981291330790618
:1002C800031D672968298129043083120313210239
:1002D800AF300319200203187229732981290A12E1
:1002E8008A11E8220A128A11F901013083120313D4
:1002F800A0070318A10A0030A1077A03031D852966
:100308008629A02913307906031D8B298C29A02959
:10031800AF30831203132006043003192106031D8E
:1003280096299729A0290A128A1126230A128A11C6
:1003380083120313A001A1010800831203133208DA
:10034800F30004300310F30CFF3E031DA6297308C5
:100358000139F4007408A60032080F39F300730855
:10036800AB003108F30004300310F30CFF3E031D0B
:10037800B82973080339F4007408A50031080F3947
:10038800F3007308AA003008F30004300310F30CDC
:10039800FF3E031DCA2973080339F4007408A4003A
:1003A80030080F39F3007308A9002F08F300043050
:1003B8000310F30CFF3E031DDC2973080739F40012
:1003C8007408A3002F080F39F3007308A8002E083B
:1003D800F30004300310F30CFF3E031DEE297308ED
:1003E8000739F4007408A2002E080F39F3007308C7
:1003F800A7000800F500362A831603130F138F127F
:100408000F12582A831603130F138F120F16582A28
:10041800831603130F138F160F12582A831603130C
:100428000F138F160F16582A831603130F178F12E0
:100438000F12582A831603130F178F120F16582AF4
:10044800831603130F178F160F12582A83160313D8
:100458000F178F160F16582A831603130F178F16A8
:100468000F12582A7508F300F4017408003A0319AA
:100478003E2A302A7308003A0319002A013A031960
:10048800062A033A03190C2A013A0319122A073AD1
:100498000319182A013A03191E2A033A0319242AB0
:1004A800013A03192A2A302A0F1408008312031369
:1004B8008C1E5F2A602A912AF8011A08F000700839
:1004C800F80030307806031D6A2A6B2A6C2A8510DA
:1004D80031307806031D712A722A732A8514323046
:1004E8007806031D782A792A7A2A05103330780687
:1004F800031D7F2A802A812A051434307806031DBB
:10050800862A872A892AFA01FA0A35307806031DCD
:100518008E2A8F2A912ABA01BA0A0B1D942A952A83
:10052800A32AEC3081000B110130F0007008B707E6
:100538000A303706031DA12AA22AA32AB701720886
:100548008A00710E8300FE0E7E0E0900D22A220850
:10055800303E990083160313981CB32AB42AAE2A96
:100568000130F300730883120313B307E72A27083F
:10057800303E990083160313981CC32AC42ABE2A46
:10058800B42A3A30990083160313981CCC2ACD2A32
:10059800C72A83120313B301FA01E72A831203134C
:1005A8003308F300F4017408003A0319DC2AE72A37
:1005B8007308003A0319AB2A013A0319BB2A033A14
:1005C8000319C52AE72A0800102B2308303E990092
:1005D80083160313981CF12AF22AEC2A0130F3003F
:1005E800730883120313B407252B2808303E99009B
:1005F80083160313981C012B022BFC2AF22A3A308B
:10060800990083160313981C0A2B0B2B052B8312B6
:100618000313B401FA01252B831203133408F300E2
:10062800F4017408003A03191A2B252B7308003AB1
:100638000319E92A013A0319F92A033A0319032B82
:10064800252B08004E2B2408303E990083160313EF
:10065800981C2F2B302B2A2B0130F30073088312A0
:100668000313B507632B2908303E9900831603133B
:10067800981C3F2B402B3A2B302B3A30990083168D
:100688000313981C482B492B432B83120313B501E2
:10069800FA01632B831203133508F300F40174087D
:1006A800003A0319582B632B7308003A0319272BB8
:1006B800013A0319372B033A0319412B632B08001E
:1006C80028308312031394008316031391018312B5
:1006D80003134908F4004A08F5004B08F6004C08D3
:1006E800F70002300310F40DF50DF60DF70DFF3E7F
:1006F800031D762B7708BF007608BE007508BD007D
:100708007408BC000030C3007A30C2001230C10047
:100718000030C0000A128A11D6200A128A118312E8
:1007280003133C08FF3E83160313930094018715B7
:1007380007160800831203138501860187018801C3
:1007480089018316031385018601870188018901C0
:1007580083160317880189018B170B178B160B114A
:10076800831603138C16811201128111011481144E
:10077800011506300A128A11FE210A128A110A127C
:100788008A111A240A128A110A128A11FE230A12DD
:100798008A1108000A128A110D240A128A11831676
:1007A800031391150A128A110D240A128A11831251
:1007B80003131308F500F6017508BC007608BD00A0
:1007C8000A128A110D240A128A1173037404031D74
:1007D800EE2BEF2BF32B831603139112F62B8316B4
:1007E800031391161116831203133D08F4003C08F5
:1007F800F300080083160313181298161815181317
:1008080083160317871119308316031399009A0169
:100818000800831603131419122C132C0D2C11081D
:100828001F39031D182C192C0D2C080083120313D3
:1008380098171816181198101813831603138C1686
:1008480008000A128A110D240A128A1173088312E9
:100858000313930008000A128A110D240A128A1140
:1008680083160313111508000A128A110D240A129F
:100878008A1183160313111408000A128A110D2411
:100888000A128A1183160313911408006400800168
:0C089800840A04060319003404064B2CEB
:04400E00D420FF3F7C
:00000001FF
