:020000040000FA
:060000000A128A110C280F
:10000800FE00030EF1000A08F2000A128A113E29C6
:100018000A128A110F28F801F901FA018313203016
:1000280084003F300A128A111A240A128A118301A5
:100038000A128A111F280A128A114B230A128A11DE
:100048008312031305148514051085100030CF00A2
:100058000130CE008630CD00A030CC000A128A11C3
:1000680011230A128A110A128A1108240A128A1103
:10007800D030F3000030F4000A128A11F5230A1276
:100088008A110030F300F4000A128A11F5230A12CB
:100098008A110A128A1111240A128A11D130F30026
:1000A8000030F4000A128A11F5230A128A1101306D
:1000B800F3000030F4000A128A117B230A128A1115
:1000C800730883120313D0005008AF000130F30007
:1000D8000030F4000A128A117B230A128A1173086D
:1000E80083120313D0005008B0000130F300003031
:1000F800F4000A128A117B230A128A1173088312E8
:100108000313D0005008B1000130F3000030F400B0
:100118000A128A117B230A128A11730883120313A5
:10012800D0005008AE000130F3000030F4000A128D
:100138008A117B230A128A11730883120313D000D1
:100148005008B2000130F3000030F4000A128A119E
:100158007B230A128A11730883120313D0005008F4
:10016800B3000030F300F4000A128A117B230A124C
:100178008A11730883120313D0005008AD000A12C5
:100188008A11FF230A128A110A128A119E210A1261
:100198008A110A128A11AB230A128A1137280A1205
:1001A8008A110C28003083120313CA000030C900DA
:1001B8000030C8000030C7004208410440043F0432
:1001C8000319E728E8283529CB01CB0AF82801309C
:1001D800F3000310BF0DC00DC10DC20DF30BED28C8
:1001E8000130F3007308CB07C21FFB28FC28EB285B
:1001F8000130F3000310C70DC80DC90DCA0DF30B6C
:10020800FE2842084602031D132941084502031D22
:10021800132940084402031D13293F084302031C05
:100228001629172926293F08C3024008031C400F36
:10023800C4024108031C410FC5024208031C420FB7
:10024800C602471401300310C20CC10CC00CBF0C0D
:10025800FF3E031D27290130CB02031D3429352910
:10026800FC284A08C2004908C1004808C0004708DD
:10027800BF000800831203138C1E432944298529D3
:10028800F8011A08F0007008F80030307806031DED
:100298004E294F295029851031307806031D5529DC
:1002A80056295729851432307806031D5C295D29A3
:1002B8005E29051033307806031D632964296529F2
:1002C800051434307806031D6A296B296D29FA0153
:1002D800FA0A35307806031D722973297529B60183
:1002E800B60A36307806031D7A297B297D29B5019F
:1002F800B50A37307806031D822983298529B40178
:10030800B40A0B1D882989299729EC3081000B1123
:100318000130F0007008BB070A303B06031D952921
:1003280096299729BB0172088A00710E8300FE0E78
:100338007E0E0900831203133308F3000430031000
:10034800F30CFF3E031DA32973080139F400740858
:10035800A70033080F39F3007308AC003208F30024
:1003680004300310F30CFF3E031DB529730803394D
:10037800F4007408A60032080F39F3007308AB00C4
:100388003108F30004300310F30CFF3E031DC729A6
:1003980073080339F4007408A50031080F39F30015
:1003A8007308AA003008F30004300310F30CFF3E72
:1003B800031DD92973080739F4007408A40030080C
:1003C8000F39F3007308A9002F08F3000430031055
:1003D800F30CFF3E031DEB2973080739F40074087A
:1003E800A3002F080F39F3007308A8000800F500D0
:1003F800332A831603130F138F120F12552A8316ED
:1004080003130F138F120F16552A831603130F1396
:100418008F160F12552A831603130F138F160F16F4
:10042800552A831603130F178F120F12552A831696
:1004380003130F178F120F16552A831603130F175E
:100448008F160F12552A831603130F178F160F16C0
:10045800552A831603130F178F160F12552A75087E
:10046800F300F4017408003A03193B2A2D2A730893
:10047800003A0319FD29013A0319032A033A03191B
:10048800092A013A03190F2A073A0319152A013ACA
:1004980003191B2A033A0319212A013A0319272AA7
:1004A8002D2A0F1408007F2A2308303E990083164E
:1004B8000313981C602A612A5B2A0130F300730831
:1004C80083120313B707942A2808303E990083162D
:1004D8000313981C702A712A6B2A83120313B7011D
:1004E800FA01942A0330990083160313981C7D2A75
:1004F8007E2A782A712A831203133708F300F4013D
:100508007408003A0319892A942A7308003A0319CF
:10051800582A013A0319682A033A0319762A942AB1
:100528000800BD2A2408303E990083160313981C3E
:100538009E2A9F2A992A0130F30073088312031315
:10054800B807D22A2908303E990083160313981C4D
:10055800AE2AAF2AA92A9F2A0330990083160313CB
:10056800981CB72AB82AB22A83120313B801B60115
:10057800D22A831203133808F300F4017408003AEE
:100588000319C72AD22A7308003A0319962A013A8E
:100598000319A62A033A0319B02AD22A0800FB2A0B
:1005A8002508303E990083160313981CDC2ADD2A9F
:1005B800D72A0130F300730883120313B907102BED
:1005C8002A08303E990083160313981CEC2AED2A5A
:1005D800E72ADD2A0330990083160313981CF52AAD
:1005E800F62AF02A83120313B901B501102B8312DE
:1005F80003133908F300F4017408003A0319052BB2
:10060800102B7308003A0319D42A013A0319E42A73
:10061800033A0319EE2A102B08002830831203131B
:100628009400831603139101831203134C08F400FA
:100638004D08F5004E08F6004F08F7000230031089
:10064800F40DF50DF60DF70DFF3E031D232B77086E
:10065800C2007608C1007508C0007408BF000030E9
:10066800C6007A30C5001230C4000030C3000A1238
:100678008A11D6200A128A11831203133F08FF3EFB
:100688008316031393009401871507160800831235
:1006980003138501860187018801890183160313E5
:1006A800850186018701880189018316031788015E
:1006B80089018B170B178B160B11831603138C16D6
:1006C80081120112811101148114011506300A12D8
:1006D8008A11FB210A128A110A128A11EA230A12C4
:1006E8008A110A128A11CE230A128A1108000A12E4
:1006F8008A11DD230A128A118316031391150A122F
:100708008A11DD230A128A11831203131308F500D4
:10071800F6017508BF007608C0000A128A11DD23A9
:100728000A128A1173037404031D9B2B9C2BA02BA4
:10073800831603139112A32B831603139116111614
:10074800831203134008F4003F08F30008007A03FB
:10075800031DAF2BB02BB52B0A128A1157220A1290
:100768008A11831203133603031DBB2BBC2BC12B29
:100778000A128A1195220A128A1183120313350369
:10078800031DC72BC82BCD2B0A128A11D3220A129C
:100798008A110800831603131812981618151813CF
:1007A80083160317871119308316031399009A01CA
:1007B8000800831603131419E22BE32BDD2B110811
:1007C8001F39031DE82BE92BDD2B080083120313C7
:1007D80098171816181198101813831603138C16E7
:1007E80008000A128A11DD230A128A11730883127B
:1007F8000313930008000A128A11DD230A128A11D2
:1008080083160313111508000A128A11DD230A1230
:100818008A1183160313111408000A128A11DD23A2
:100828000A128A11831603139114080064008001C8
:0C083800840A04060319003404061B2C7B
:04400E00D420FF3F7C
:00000001FF
